# 
# $Id: USB_FW.hex 6770 2009-02-22 15:20:03Z dima $ 
# 
:03004300020E00AA
:03005300020E009A
:100E0000020D2F00020D8C00020D7600020D47002E
:080E1000020BC000020B83007D
:100700001201000200000040E4E451110000010267
:1007100003010A0600020000004001000902370040
:10072000020100C0000904000002FFFFFF040705EA
:10073000020200020007058602000200090401000F
:1007400002FFFFFF050705040200020007058802FB
:10075000000200001201000200000040E4E4511118
:100760000000010203010A0600020000004001002F
:1007700009023700020100C0320904000002FFFF35
:10078000FF04070502024000000705860240000042
:100790000904010002FFFFFF0507050402400000F5
:1007A000070588024000000604001600140012002D
:1007B0000A00120004030904160358006F007200B7
:1007C00063006F006D0020004C00540044001403CF
:1007D00041007300740072006900620061006E00E5
:1007E0006B001203490053004E0075006D0062005B
:1007F000650072000A0346005000470041001203E2
:100800004D006E0067002000500072006F00630012
:020810000000E6
:020DFE000000F3
:100CF7004110010041101400411000004210020091
:010D070000EB
:100CD700E490E670F075B5E653B5EE43B28053B2D3
:100CE700FCC2B3C2B5C2B67F32FE120DA2D2B62283
:100D5F00538EF75389FB5389F74389015389FDE478
:070D6F00F58AF58CD2A922E0
:100A9E0078187C107D017BFF7A0D79FE7E007F0237
:100AAE0012059890E678E0541824F0601E24087021
:100ABE003AE4901018F07C107D187B017F50120ADA
:100ACE00387C107D047B107F50801D901018741F91
:100ADE00F0A374EFF07C107D187B027F51120A3860
:0B0AEE007C107D047B107F5112060974
:010AF90022DA
:100BF6007F03120C84EF2402FFE43EFEE517C39444
:100C060008501F740C2517F582E43410F583E0FDB7
:100C16008F828E8375F002E5171205FDEDF005173C
:020C260080DA72
:010C280022A9
:100B4000901001EFF0E50B240AFDE4350AFC90104B
:100B500007E02FFBA3E0FF0DED8C8370010C14F573
:100B600082EBF08D828C83EFF0EFFFAD03ED901000
:100B700002CFF0A3EFF0D207120C2990E680E054E8
:020B8000F7F08C
:010B82002250
:1009410090E600E054E74410F090E60174C0F090A6
:10095100E6107420F000000090E611F00000009015
:10096100E6047480F0000000740FF0000000E4F071
:1009710000000090E6187410F0000000E490E61901
:10098100F000000090E61A7408F0000000E490E620
:100991001BF000000090E6497482F0000000F000B6
:1009A100000090E6247402F0000000E490E625F0D7
:1009B10000000090E6957480F0000000F000000057
:0409C10043AF01221D
:100DA2007C007D181205EBEF1FAC0670011E4C7023
:020DB200F62227
:0A06AE008E198F1A8B1B8A1C891D00
:1006B800E4F51EF51FC3E51F951AE51E951950337D
:1006C800AB1BAA1CA91D851F82851E831205BEFFB0
:1006D800E4FEC2B2EF1392B7EFC313FFD2B20EBE5D
:1006E80008F0C2B220B002C322051FE51F70C6057C
:0406F8001E80C2D3CB
:0106FC0022DB
:100D170090E60174C0F0C2B67F327E00120DA2D2F7
:080D2700B67F327E00020DA22E
:10081200901014E0FF901000F0901002E0FCA3E0B2
:1008220054F064607003EC641160030208B3300694
:1008320022EFB51902D322208104E5196008208035
:1008420007E519B40102C322E4F510901014E5196A
:10085200F0803B30810C208009E4F510901014F0F8
:10086200802C30800D20810AE4F51090101404F0E1
:10087200801CE510B40117200014E4F51090101448
:10088200E060047F0080027F01901014EFF090106E
:1008920014E0FF901000E06F600FA3E0D3940040DB
:1008A20008120D177F01120B40901014E024FF92E2
:0308B200B5D32299
:10007000E4901018F0F517F518C205E5AA5484604D
:100080000302029F90F400E024FE70030201452465
:10009000FA700302016924F8700302019624F070DB
:1000A0000302019A24F070030201A924F0700302F4
:1000B00001B424C8700302025D2477600302027257
:1000C00075170075180490FC007401F090F401E0BD
:1000D00090FC01F090F402E090FC02F090F401E05A
:1000E000700AA3E0700630B003120D1720B0033081
:1000F000B44A90E694E0FE90E695E07C002400FF90
:10010000EC3ECF24FCCF34FFFE7B017AF47904125D
:1001100006AE501F90FC0330B4137408F07FE87EE5
:1001200003120DA290E6017403F002027E7404F043
:1001300002027E90FC037402F002027E90FC0374C3
:1001400001F002027E75170075180490FC0074021D
:10015000F0E4A3F0A3F030B407A37410F002027E21
:1001600090FC037420F002027E7517007518119040
:10017000FC007408F0E4FF74042FF582E43410F5F9
:1001800083E0FE74012FF582E434FCF583EEF00F7A
:10019000BF10E402027E7F028014D206E4F5191239
:1001A0000812120D17E4FF8005120D177F01120BC4
:1001B0004002027E75170075180490F400E090FC70
:1001C00000F090F401E090FC01F0E4A3F0A3F090C3
:1001D000F401E014B40A00400302027E9001EA75C3
:1001E000F003A4C58325F0C5837302020802021040
:1001F00002027E02021802022002027E020226028F
:10020000024502027E02024B90F402E0F5108047A4
:1002100090FC02E510F08066D200A200E433803743
:10022000A200E4338031E4F510D20690F402E0F548
:10023000191208125007E4F517F518804190FC02D6
:1002400074FFF08039901014E0800CA280E4332514
:10025000E0FFA281E4334F90FC02F08021E4F51727
:10026000F51890FC007478F0E4A3F0A3F00000000F
:10027000800C75170075180190FC0074AAF0E51841
:1002800045176012E51790E69CF0000000E5189015
:0F029000E69DF000000090E6957480F0000000FD
:01029F00223C
:0206FD00D32206
:080E180090E6BAE0F522D322B6
:100DB40090E740E522F0E490E68AF090E68B04F0B8
:020DC400D32238
:080E200090E6BAE0F521D322AF
:100DC60090E740E521F0E490E68AF090E68B04F0A7
:020DD600D32226
:100CAF0090E6B9E0242F600D04701990E604E0FF80
:100CBF00430780800890E604E0FF53077F000000A1
:070CCF00EFF08002D322C305
:010CD60022FB
:100D2F00C0E0C083C082D2025391EF90E65D7401A0
:080D3F00F0D082D083D0E03235
:100D7600C0E0C083C0825391EF90E65D7404F0D06A
:060D860082D083D0E032B0
:100D8C00C0E0C083C0825391EF90E65D7402F0D056
:060D9C0082D083D0E0329A
:100BC000C0E0C083C08285110C85120D850D828521
:100BD0000C83A37402F085080E85090F850F8285AA
:100BE0000E83A37407F05391EF90E65D7410F0D07C
:060BF00082D083D0E03248
:100D4700C0E0C083C082D2045391EF90E65D74087F
:080D5700F0D082D083D0E0321D
:100B8300C0E0C083C08290E680E030E72085080C97
:100B930085090D850D82850C83A37402F085110EE2
:100BA30085120F850F82850E83A37407F05391EF8F
:0D0BB30090E65D7420F0D082D083D0E03257
:0A0DF40000010202030304040505D8
:0E0D0800011000C1004210150000411017003C
:1009C500C204C201D203C202120CD7120D5F120972
:1009D50041120A9E750A07750B00751307751412E7
:1009E50075080775091C75110775127085110E8537
:1009F500120F7515077516B4D2E843D82090E6682E
:100A0500E04409F090E65CE0443DF0120BF67F010E
:100A1500120B40D2AF538EF8C204C2AF120070D28F
:100A2500AF3002051202A0C2023004EEC204120C5D
:030A35005880E7FF
:0B0DE90090E50DE030E402C322D322AD
:1002A00090E6B9E070030203651470030203DA24D8
:1002B000FE700302045524FB700302035F147003F5
:1002C00002035914700302034D14700302035324F4
:1002D0000560030204B41206FD40030204C090E668
:1002E000BBE024FE602714603E24FD6011146027EB
:1002F00024067056E50A90E6B3F0E50B8042120D35
:10030000E95044E51390E6B3F0E5148033E50C9032
:10031000E6B3F0E50D802985110E85120FE50E90EC
:10032000E6B3F0E50F801990E6BAE0FF120C84AA5C
:1003300006A9077B01EA494B600DEE90E6B3F0EFAA
:1003400090E6B4F00204C00204AF0204AF120DC67E
:100350000204C0120E200204C0120E180204C012C1
:100360000DB40204C090E6B8E0247F601514601953
:1003700024027063A201E43325E0FFA203E4334FBB
:100380008041E490E740F0803F90E6BCE0547EFF7F
:100390007E00E0D394807C0040047D0180027D00DB
:1003A000EC4EFEED4F24F4F582740D3EF583E4939C
:1003B000FF3395E0FEEF24A1FFEE34E68F82F58354
:1003C000E0540190E740F0E4A3F090E68AF090E674
:1003D0008B7402F00204C00204AF90E6B8E024FE81
:1003E0006016240260030204C090E6BAE0B401057E
:1003F000C2010204C00204AF90E6BAE0705590E674
:10040000BCE0547EFF7E00E0D394807C0040047DFD
:100410000180027D00EC4EFEED4F24F4F582740D58
:100420003EF583E493FF3395E0FEEF24A1FFEE3425
:10043000E68F82F583E054FEF090E6BCE054801332
:100440001313541FFFE0540F2F90E683F0E0442075
:10045000F0806D805A90E6B8E024FE6019240270A6
:100460004E90E6BAE0B40104D201805490E6BAE0BE
:100470006402604C803990E6BCE0547EFF7E00E070
:10048000D394807C0040047D0180027D00EC4EFE10
:10049000ED4F24F4F582740D3EF583E493FF33951C
:1004A000E0FEEF24A1FFEE34E68F82F583800D900D
:1004B000E6A08008120CAF500790E6A0E04401F0DF
:0704C00090E6A0E04480F08B
:0104C7002212
:03003300020E2892
:040E280053D8EF327A
:100C580090E682E030E004E020E60B90E682E030A7
:100C6800E119E030E71590E680E04401F07F147E5A
:0C0C780000120AFA90E680E054FEF02220
:100C290030070990E680E0440AF0800790E680E00A
:100C39004408F07FDC7E05120AFA90E65D74FFF045
:0F0C490090E65FF05391EF90E680E054F7F022D1
:060609008C178D18AE07EE
:10060F00EB70037F012290E678E020E6F990E67820
:10061F007480F0EE25E0440190E679F090E678E002
:10062F0030E0F990E678E020E26BE030E167BB0163
:10063F000790E678E04420F090E679E0F5191BEB9F
:10064F00603090E678E030E0F990E678E020E2451F
:10065F00BB010790E678E04420F090E679E0FF05D3
:10066F0018E518AC177002051714F5828C83EFF09C
:10067F0080CC90E678E030E0F990E678E020E21563
:10068F0090E678E04440F090E679E085188285178F
:0E069F0083F07F012290E678E04440F07F0077
:0106AD00222A
:100A380090E678E020E6F990E6787480F0EF25E01B
:100A480090E679F090E678E030E0F990E678E020FA
:100A5800E23AE030E136EBD3940040260DEDAE04E7
:100A680070010C14F5828E83E090E679F01B90E615
:100A780078E030E0F990E678E020E210E020E1D676
:100A8800800A90E678E04440F07F012290E678E022
:050A98004440F07F0066
:010A9D002236
:020C8400A907BE
:100C8600AE15AF168F828E83A3E064037017AD0195
:100C960019ED7001228F828E83E07C002FFDEC3EE1
:080CA600FEAF0580DFE4FEFF54
:010CAE002223
:100AFA008E1A8F1B90E600E054187012E51B240131
:100B0A00FFE4351AC313F51AEF13F51B801590E6A7
:100B1A0000E05418FFBF100BE51B25E0F51BE51A92
:100B2A0033F51AE51B151BAE1A7002151A4E60052D
:060B3A00120DD880EE222E
:100DD8007400F58690FDA57C05A3E582458370F92E
:010DE80022E8
:030000000208B53E
:0C08B500787FE4F6D8FD7581220208FC73
:1004C800E709F608DFFA8046E709F208DFFA803E16
:1004D80088828C83E709F0A3DFFA8032E309F60803
:1004E800DFFA8078E309F208DFFA807088828C836B
:1004F800E309F0A3DFFA806489828A83E0A3F6081F
:10050800DFFA805889828A83E0A3F208DFFA804CF8
:1005180080D280FA80C680D4806980F280338010CF
:1005280080A680EA809A80A880DA80E280CA803338
:1005380089828A83ECFAE493A3C8C582C8CCC583B0
:10054800CCF0A3C8C582C8CCC583CCDFE9DEE78080
:100558000D89828A83E493A3F608DFF9ECFAA9F0FF
:10056800EDFB2289828A83ECFAE0A3C8C582C8CC55
:10057800C583CCF0A3C8C582C8CCC583CCDFEADE6E
:10058800E880DB89828A83E493A3F208DFF980CCD0
:1005980088F0EF60010E4E60C388F0ED2402B404C9
:1005A8000050B9F582EB2402B4040050AF23234570
:0605B80082239005187378
:1005BE00BB010CE58229F582E5833AF583E02250F2
:1005CE0006E92582F8E622BBFE06E92582F8E2223C
:0D05DE00E58229F582E5833AF583E4932256
:1005EB00EF8DF0A4A8F0CF8CF0A428CE8DF0A42E24
:0205FB00FE22DE
:0C05FD00A42582F582E5F03583F5832209
:1008C1000209C5E493A3F8E493A34003F68001F27F
:1008D10008DFF48029E493A3F85407240CC8C33338
:1008E100C4540F4420C8834004F456800146F6DF07
:1008F100E4800B0102040810204080900CF7E47E94
:10090100019360BCA3FF543F30E509541FFEE493FB
:10091100A360010ECF54C025E060A840B8E493A3C2
:10092100FAE493A3F8E493A3C8C582C8CAC583CAED
:10093100F0A3C8C582C8CAC583CADFE9DEE780BEA5
:010D160000DC
:00000001FF
