# 
# $Id: USB_FW.hex 6245 2008-10-19 16:16:50Z dima $ 
# 
:03004300020E00AA
:03005300020E009A
:100E0000020E3000020EBB00020EA500020E4800CA
:080E1000020C7000020C33001B
:100700001201000200000040E4E451110000010267
:1007100003010A0600020000004001000902370040
:10072000020100C0000904000002FFFFFF040705EA
:10073000020200020007058602000200090401000F
:1007400002FFFFFF050705040200020007058802FB
:10075000000200001201000200000040E4E4511118
:100760000000010203010A0600020000004001002F
:1007700009023700020100C0320904000002FFFF35
:10078000FF04070502024000000705860240000042
:100790000904010002FFFFFF0507050402400000F5
:1007A000070588024000000604001600140012002D
:1007B0000A00120004030904160358006F007200B7
:1007C00063006F006D0020004C00540044001403CF
:1007D00041007300740072006900620061006E00E5
:1007E0006B001203490053004E0075006D0062005B
:1007F000650072000A0346005000470041001203E2
:100800004D006E0067002000500072006F00630012
:020810000000E6
:1006CE00AC0790E678E020E6F9E51E702390E67818
:1006DE00E04480F0EC25E090E679F08D19AF03A9A7
:1006EE0007751A018A1B891CE4F51D751E01D3229C
:0206FE00C32215
:100CA600AC0790E678E020E6F9E51E702590E67838
:100CB600E04480F0EC25E0440190E679F08D19AF30
:100CC60003A907751A018A1B891CE4F51D751E0305
:040CD600D322C32240
:100E6000120CA6E51E24FA6009146006240770F32C
:070E7000D322E4F51ED3229A
:100E77001206CEE51E24FA6009146006240770F3F3
:070E8700D322E4F51ED32283
:080F2D00E4F51ED2E9D2AF2267
:03004B0002081296
:10081200C0E0C083C082C0D075D000C000C001C09B
:1008220002C003C006C00790E678E030E206751EFB
:10083200060208F090E678E020E10CE51E64026012
:1008420006751E070208F0E51E24FE605F1460367E
:1008520024FE70030208E424FC70030208ED24085D
:1008620060030208F0AB1AAA1BA91CAF1D051D8F5D
:10087200827583001205BE90E679F0E51D65197058
:100882006D751E05806890E679E0AB1AAA1BA91C5B
:10089200AE1D8E827583001205EB751E02E519648A
:1008A20001704B90E678E04420F08042E51924FE86
:1008B200B51D0790E678E04420F0E51914B51D0A4D
:1008C20090E678E04440F0751E0090E679E0AB1ABD
:1008D200AA1BA91CAE1D8E827583001205EB051D95
:1008E200800C90E678E04440F08000751E00539141
:1008F200DFD007D006D003D002D001D000D0D0D0B4
:0609020082D083D0E03238
:020F47000000A8
:100DDB0041100100411014004110000042100200AC
:010DEB000007
:100DBB00E490E670F075B5E653B5EE43B28053B2EE
:100DCB00FCC2B3C2B5C2B67F32FE120ED1D2B6226E
:100E8E00538EF75389FB5389F74389015389FDE448
:070E9E00F58AF58CD2A922B0
:100AFF0078187C107D017BFF7A0F79477E007F028B
:100B0F0012059890E678E0541824F0601E240870BF
:100B1F003AE4901018F07A107B187D017F50120E76
:100B2F00777A107B047D107F50801D901018741FF2
:100B3F00F0A374EFF07A107B187D027F51120E77BD
:0B0B4F007A107B047D107F51120E60B5
:010B5A002278
:100CDA007F03120D68EF2402FFE43EFEE525C3946C
:100CEA0008501F740C2525F582E43410F583E0FDC5
:100CFA008F828E8375F002E52512061FEDF0052519
:020D0A0080DA8D
:010D0C0022C4
:100BF000901001EFF0E50B240AFDE4350AFC90109B
:100C000007E02FFBA3E0FF0DED8C8370010C14F5C2
:100C100082EBF08D828C83EFF0EFFFAD03ED90104F
:100C200002CFF0A3EFF0D209120D0D90E680E05450
:020C3000F7F0DB
:010C3200229F
:1009940090E600E054E74410F090E60174C0F09053
:1009A400E6107420F000000090E611F000000090C2
:1009B400E6047480F0000000740FF0000000E4F01E
:1009C40000000090E6187410F0000000E490E619AE
:1009D400F000000090E61A7408F0000000E490E6CD
:1009E4001BF000000090E6497482F0000000F00063
:1009F400000090E6247402F0000000E490E625F084
:100A040000000090E6957480F0000000F000000003
:040A140043AF0122C9
:100ED1007C007D1812060DEF1FAC0670011E4C70D0
:020EE100F622F7
:0A0B5B008E278F288B298A2A892B08
:100B6500E4F52CF52DC3E52D9528E52C9527503377
:100B7500AB29AA2AA92B852D82852C831205BEFFB8
:100B8500E4FEC2B2EF1392B7EFC313FFD2B20EBEAB
:100B950008F0C2B220B002C322052DE52D70C605AE
:040BA5002C80C2D30B
:010BA9002229
:100E180090E60174C0F0C2B67F327E00120ED1D2C5
:080E2800B67F327E00020ED1FC
:10062B00901014E0FF901000F0901002E0FCA3E09B
:10063B0054F064607003EC641160030206CC300864
:10064B0022EFB52702D322208104E5276008208002
:10065B0007E527B40102C322E4F510901014E52737
:10066B00F0803B30810C208009E4F510901014F0E1
:10067B00802C30800D20810AE4F51090101404F0CA
:10068B00801CE510B40117200014E4F51090101431
:10069B00E060047F0080027F01901014EFF0901057
:1006AB0014E0FF901000E06F600FA3E0D3940040C4
:1006BB0008120E187F01120BF0901014E024FF9219
:0306CB00B5D32282
:10007000E4901018F0F525F526C207E5AA5484602F
:100080000302029F90F400E024FE70030201452465
:10009000FA700302016924F8700302019624F070DB
:1000A0000302019A24F070030201A924F0700302F4
:1000B00001B424C8700302025D2477600302027257
:1000C00075250075260490FC007401F090F401E0A1
:1000D00090FC01F090F402E090FC02F090F401E05A
:1000E000700AA3E0700630B003120E1820B003307F
:1000F000B44A90E694E0FE90E695E07C002400FF90
:10010000EC3ECF24FCCF34FFFE7B017AF47904125D
:100110000B5B501F90FC0330B4137408F07FE87E33
:1001200003120ED190E6017403F002027E7404F013
:1001300002027E90FC037402F002027E90FC0374C3
:1001400001F002027E75250075260490FC00740201
:10015000F0E4A3F0A3F030B407A37410F002027E21
:1001600090FC037420F002027E7525007526119024
:10017000FC007408F0E4FF74042FF582E43410F5F9
:1001800083E0FE74012FF582E434FCF583EEF00F7A
:10019000BF10E402027E7F028014D208E4F5271229
:1001A000062B120E18E4FF8005120E187F01120BA9
:1001B000F002027E75250075260490F400E090FCA4
:1001C00000F090F401E090FC01F0E4A3F0A3F090C3
:1001D000F401E014B40A00400302027E9001EA75C3
:1001E000F003A4C58325F0C5837302020802021040
:1001F00002027E02021802022002027E020226028F
:10020000024502027E02024B90F402E0F5108047A4
:1002100090FC02E510F08066D200A200E433803743
:10022000A200E4338031E4F510D20890F402E0F546
:100230002712062B5007E4F525F526804190FC0295
:1002400074FFF08039901014E0800CA280E4332514
:10025000E0FFA281E4334F90FC02F08021E4F52519
:10026000F52690FC007478F0E4A3F0A3F000000001
:10027000800C75250075260190FC0074AAF0E52617
:1002800045256012E52590E69CF0000000E52690EB
:0F029000E69DF000000090E6957480F0000000FD
:01029F00223C
:020F4500D322B5
:080F350090E6BAE0F52FD3228B
:100EE30090E740E52FF0E490E68AF090E68B04F07B
:020EF300D32208
:080F3D0090E6BAE0F52ED32284
:100EF50090E740E52EF0E490E68AF090E68B04F06A
:020F0500D322F5
:100D930090E6B9E0242F600D04701990E604E0FF9B
:100DA300430780800890E604E0FF53077F000000BC
:070DB300EFF08002D322C320
:010DBA002216
:100E3000C0E0C083C082D2025391EF90E65D74019E
:080E4000F0D082D083D0E03233
:100EA500C0E0C083C0825391EF90E65D7404F0D03A
:060EB50082D083D0E03280
:100EBB00C0E0C083C0825391EF90E65D7402F0D026
:060ECB0082D083D0E0326A
:100C7000C0E0C083C08285110C85120D850D828570
:100C80000C83A37402F085080E85090F850F8285F9
:100C90000E83A37407F05391EF90E65D7410F0D0CB
:060CA00082D083D0E03297
:100E4800C0E0C083C082D2045391EF90E65D74087D
:080E5800F0D082D083D0E0321B
:100C3300C0E0C083C08290E680E030E72085080CE6
:100C430085090D850D82850C83A37402F085110E31
:100C530085120F850F82850E83A37407F05391EFDE
:0D0C630090E65D7420F0D082D083D0E032A6
:0A0F230000010202030304040505A7
:0E0DEC00011000C10042101500004110170058
:03000B00020A8C5A
:100A8C00C0E0C0F0C083C082C0D075D000C000C030
:100A9C0001C002C003C004C005C006C007901015F9
:100AAC00E07002A3E07021C208F52712062B90100B
:100ABC0015E4F0A37482F0A3E0FF24FF9287C287B1
:100ACC00EF6401F0C200800E901016E024FFF0904D
:100ADC001015E034FFF0D28CD007D006D005D0042E
:100AEC00D003D002D001D000D0D0D082D083D0F0AF
:030AFC00D0E03215
:100A1800C204C201D203C202120DBB120E8E120909
:100A280094120F2D120AFF750A07750B007513072C
:100A380075141275080775091C75110775127085EC
:100A4800110E85120F7515077516B4D2E843D82014
:100A580090E668E04409F090E65CE0443DF0D2AFEF
:100A6800D28C120CDA7F01120BF0538EF8C20412EA
:100A780000703002051202A0C2023004F2C2041251
:040A88000D3C80EBB6
:0B0F180090E50DE030E402C322D3227C
:1002A00090E6B9E070030203651470030203DA24D8
:1002B000FE700302045524FB700302035F147003F5
:1002C00002035914700302034D14700302035324F4
:1002D0000560030204B4120F4540030204C090E617
:1002E000BBE024FE602714603E24FD6011146027EB
:1002F00024067056E50A90E6B3F0E50B8042120F33
:10030000185044E51390E6B3F0E5148033E50C9003
:10031000E6B3F0E50D802985110E85120FE50E90EC
:10032000E6B3F0E50F801990E6BAE0FF120D68AA77
:1003300006A9077B01EA494B600DEE90E6B3F0EFAA
:1003400090E6B4F00204C00204AF0204AF120EF54E
:100350000204C0120F3D0204C0120F350204C01285
:100360000EE30204C090E6B8E0247F601514601923
:1003700024027063A201E43325E0FFA203E4334FBB
:100380008041E490E740F0803F90E6BCE0547EFF7F
:100390007E00E0D394807C0040047D0180027D00DB
:1003A000EC4EFEED4F2423F582740F3EF583E4936B
:1003B000FF3395E0FEEF24A1FFEE34E68F82F58354
:1003C000E0540190E740F0E4A3F090E68AF090E674
:1003D0008B7402F00204C00204AF90E6B8E024FE81
:1003E0006016240260030204C090E6BAE0B401057E
:1003F000C2010204C00204AF90E6BAE0705590E674
:10040000BCE0547EFF7E00E0D394807C0040047DFD
:100410000180027D00EC4EFEED4F2423F582740F27
:100420003EF583E493FF3395E0FEEF24A1FFEE3425
:10043000E68F82F583E054FEF090E6BCE054801332
:100440001313541FFFE0540F2F90E683F0E0442075
:10045000F0806D805A90E6B8E024FE6019240270A6
:100460004E90E6BAE0B40104D201805490E6BAE0BE
:100470006402604C803990E6BCE0547EFF7E00E070
:10048000D394807C0040047D0180027D00EC4EFE10
:10049000ED4F2423F582740F3EF583E493FF3395EB
:1004A000E0FEEF24A1FFEE34E68F82F583800D900D
:1004B000E6A08008120D93500790E6A0E04401F0FA
:0704C00090E6A0E04480F08B
:0104C7002212
:03003300020DFBC0
:040DFB0053D8EF32A8
:100D3C0090E682E030E004E020E60B90E682E030C2
:100D4C00E119E030E71590E680E04401F07F147E75
:0C0D5C0000120BAA90E680E054FEF0228A
:100D0D0030090990E680E0440AF0800790E680E023
:100D1D004408F07FDC7E05120BAA90E65D74FFF0AF
:0F0D2D0090E65FF05391EF90E680E054F7F022EC
:020D6800A907D9
:100D6A00AE15AF168F828E83A3E064037017AD01B0
:100D7A0019ED7001228F828E83E07C002FFDEC3EFC
:080D8A00FEAF0580DFE4FEFF6F
:010D9200223E
:100BAA008E288F2990E600E054187012E529240156
:100BBA00FFE43528C313F528EF13F529801590E6CD
:100BCA0000E05418FFBF100BE52925E0F529E528B8
:100BDA0033F528E5291529AE28700215284E600537
:060BEA00120F0780EE224D
:100F07007400F58690FDA57C05A3E582458370F9FD
:010F170022B7
:03000000020908EA
:0C090800787FE4F6D8FD75812F02094FBE
:1004C800E709F608DFFA8046E709F208DFFA803E16
:1004D80088828C83E709F0A3DFFA8032E309F60803
:1004E800DFFA8078E309F208DFFA807088828C836B
:1004F800E309F0A3DFFA806489828A83E0A3F6081F
:10050800DFFA805889828A83E0A3F208DFFA804CF8
:1005180080D280FA80C680D4806980F280338010CF
:1005280080A680EA809A80A880DA80E280CA803338
:1005380089828A83ECFAE493A3C8C582C8CCC583B0
:10054800CCF0A3C8C582C8CCC583CCDFE9DEE78080
:100558000D89828A83E493A3F608DFF9ECFAA9F0FF
:10056800EDFB2289828A83ECFAE0A3C8C582C8CC55
:10057800C583CCF0A3C8C582C8CCC583CCDFEADE6E
:10058800E880DB89828A83E493A3F208DFF980CCD0
:1005980088F0EF60010E4E60C388F0ED2402B404C9
:1005A8000050B9F582EB2402B4040050AF23234570
:0605B80082239005187378
:1005BE00BB010CE58229F582E5833AF583E02250F2
:1005CE0006E92582F8E622BBFE06E92582F8E2223C
:0D05DE00E58229F582E5833AF583E4932256
:1005EB00F8BB010DE58229F582E5833AF583E8F046
:1005FB00225006E92582C8F622BBFE05E92582C8F2
:02060B00F222D9
:10060D00EF8DF0A4A8F0CF8CF0A428CE8DF0A42E01
:02061D00FE22BB
:0C061F00A42582F582E5F03583F58322E6
:10091400020A18E493A3F8E493A34003F68001F2D7
:1009240008DFF48029E493A3F85407240CC8C333E4
:10093400C4540F4420C8834004F456800146F6DFB3
:10094400E4800B0102040810204080900DDBE47E5B
:10095400019360BCA3FF543F30E509541FFEE493A8
:10096400A360010ECF54C025E060A840B8E493A36F
:10097400FAE493A3F8E493A3C8C582C8CAC583CA9A
:10098400F0A3C8C582C8CAC583CADFE9DEE780BE52
:010DFA0000F8
:00000001FF
