# 
# $Id: USB_FW.hex 7071 2009-05-12 12:33:48Z dima $ 
# 
:03004300021B009D
:03005300021B008D
:101B0000021B1800021B7500021B5F00021B300045
:081B1000021925000218AE00C5
:100C00001201000200000040AAAAAAAAAAAA010290
:100C100003010A060002000000400100090237003B
:100C2000020100C0000904000002FFFFFF040705E5
:100C3000020200020007058602000200090401000A
:100C400002FFFFFF050705040200020007058802F6
:100C5000000200001201000200000040E4E4511113
:100C60000000010203010A0600020000004001002A
:100C700009023700020100C0320904000002FFFF30
:100C8000FF0407050202400000070586024000003D
:100C90000904010002FFFFFF0507050402400000F0
:100CA0000705880240000006040016001400120028
:100CB0000A00260004030904160358006F0072009E
:100CC00063006F006D0020004C00540044001403CA
:100CD00041007300740072006900620061006E00E0
:100CE0006B001203530065007200690061006C0024
:100CF0004E006F000A0346005000470041002603E3
:100D00004D0061006E00610067006D0065006E00BF
:100D10007400500072006F00630065007300730080
:060D20006F0072000000EC
:1010800041E0300041E09C0042E097000041E03147
:0F10900000021BE06B0218E05F43E099000000D4
:101A45008B4E8A4F8950E5531553AE52700215528D
:101A55004E6014AB4E0550E550AA4F7002054F1469
:081A6500F9ED12063C80DF22BE
:1018EB008B4E8A4F8950E5551555AE5470021554E1
:1018FB004E6026AB510553E553AA527002055214A4
:10190B00F91205F6FFAB4E0550E550AA4F700205D4
:0A191B004F14F9EF12063C80CD22B4
:10000E00E490E670F075B5E653B5EE43B28053B2A8
:10001E00F4C2B3C2B5C2B67F32FE121AE9D2B6220C
:101B4800538EF75389FB5389F74389015389FDE481
:071B5800F58AF58CD2A922E9
:101566008C428D43AA06A9077551018A5289537583
:10157600540075551C7B017AE079321218EB90E025
:101586004AE0FCA3E0FDA3E0FEA3E064D1FFEE6425
:101596008DFEED644CFDEC6449FC90E04A120718A0
:1015A6007EE07F327D1C7C00120B4C7EE07F327B1E
:1015B6001C7A00AD43AC42120FCE7D1C7C00AF43BB
:1015C600AE42120F077D1C7C00AF43AE4202195B90
:08174E008E428F438C448D454F
:10175600C208121ACABF5004D208803BE4F546F507
:1017660047E5452547F582E5443546F583E0FFE53F
:10177600432547F582E5423546F583E0B5070E0574
:1017860047E547700205466410454670D4E5476450
:091796001045467002D208A208B9
:01179F002227
:10137D00121ACA8F3FE4F543F544AD44AC43AF3F79
:10138D001211D1744F2544F582E434E0F583E54024
:10139D00F00544E54470020543C39410E5436480B1
:1013AD00948040D67540FF75411D754219754300F7
:1013BD00754410C3E544942CE54364809480502D0E
:1013CD00E53FB45108AD42AC41FF1211D1744F2528
:1013DD0044F582E434E0F583E540F00544E54470DE
:0D13ED000205430542E54270CA054180C675
:0113FA0022D0
:0A163C008E428F438B448A45894695
:101646007E00E5432DF54BEE3542F54A121ACA8F58
:1016560047E5476451600BC3E5439410E5429400A7
:101666005035854248854349C3E549954BE548953C
:101676004A5024AB44AA45A946AD49AC48AF4712E7
:1016860013FB0549E5497002054874012546F546F0
:07169600E43545F54580D164
:01169D00222A
:061477008B3F8A40894111
:10147D00D2077551017552E075534F75540075556E
:10148D00107B017AE0797B1218EBE5412410F9E429
:10149D003540853F51F552895375540075551C7B68
:1014AD00017AE0798B1218EB7EE07F7B7CE07D1476
:1014BD001215667EE07F14E541241CF9E43540FCED
:1014CD00AD0112174E5016AB3FE5412410F9E4352E
:1014DD0040FA7D1C7F197E1D12163C8002C207A2A8
:0114ED0007F7
:0114EE0022DB
:100E38007F03121A1AEF2402FFE43EA907753F0147
:100E4800F540894190E050E0FFE50C2408F582E484
:100E5800350BF583EFF090E051E0FFE50C2409F540
:100E680082E4350BF583EFF090E052E0FFE50C24C7
:100E78000AF582E4350BF583EFF090E053E0FFE5E7
:100E88000C240BF582E4350BF583EFF090E054E089
:100E9800FFE50C240CF582E4350BF583EFF090E0C8
:100EA80055E0FFE50C240DF582E4350BF583EFF0F2
:100EB8007F087E00E4FDEDC394085028744F2FF599
:100EC80082E434E0F583E0FCAB3FAA40A94175F029
:100ED80002EDA4F58285F083EC12064E0D0FBF00DB
:100EE800010E80D2E5192404F582E43518F583E073
:0E0EF80030E0047F0180027F0090E030EFF0D8
:010F060022C8
:1017A000AE0790E052E02EFFE50C240AF582E43506
:1017B0000BF583EFF0E50C240BF582E4350BF58394
:1017C000E0FEE50C240AF582E4350BF583E0FDED3F
:1017D000FF90E097EEF0A3EFF0D20712199190E698
:0517E00080E054F7F069
:0117E50022E1
:1012F90090E600E054E74410F090E60174C0F090E5
:10130900E6107420F000000090E611F00000009053
:10131900E6047480F0000000740FF0000000E4F0AF
:1013290000000090E6187410F0000000E490E6193F
:10133900F000000090E61A7408F0000000E490E65E
:101349001BF000000090E6497482F0000000F000F4
:10135900000090E6247402F0000000E490E625F015
:1013690000000090E6957480F0000000F000000095
:0413790043AF01225B
:061AE300D2877F0A7E009D
:101AE9007C007D18120670EF1FAC0670011E4C7049
:021AF900F622D3
:0A16F7008E3F8F408B418A428943E9
:10170100E4F544F545C3E5459540E544953F503B37
:10171100AB41AA42A94385458285448312060FFF46
:10172100E4FBFAC2B2EF1392B7EFC313FFD2B20BCD
:10173100BB00010AEB64084A70E9C2B220B002C3DF
:0C174100220545E54570BE054480BAD382
:01174D002279
:101A9500E4F51190E60174C0F0C2B67F967E00129F
:0B1AA5001AE9D2B67F327E00021AE977
:101B8B00D2B1121AE3C2B1121AE5C2877F0A7E00E4
:031B9B00021AE942
:02186E00AB07C6
:10187000E4F9FAEBC413131354011392B17F027EFF
:1018800000121AE9D2877F057E00121AE9E925E0E5
:10189000FFA283E4334FF97F057E00121AE9EB259E
:0D18A000E0FBC287121AE50ABA08C8AF01C2
:0118AD002218
:06182C008B538A5489551C
:10183200C2AF121B8BE4F55AE55AC395595027AB38
:1018420053AA54A955855A8275830012060FFF12B6
:10185200186EAB56AA57A958855A82758300EF12A3
:0B186200064E055A80D2120036D2AFAD
:01186D002258
:0B003600C2B1121AE5121AE3D2B12287
:101AB000753F8F8F40755600755700755849755999
:0A1AC000027B007A00793F02182C27
:100A1300753F007540007541007543017544E075ED
:100A230045007546017547E0754808E4FF7B017A88
:100A3300E07900F552755308FD121A45AB43AA44F9
:100A4300A945740112063CE4F54DE54DC454F0ABE1
:100A530043AA44A94590000112064E854656854790
:100A63005785485875590812182CAB46AA47A94808
:100A730090000212060FFF530770EF24E060172463
:100A8300F0601924F0601B2430702A753F0185182B
:100A9300408519418028E5192401800AE5192402BB
:100AA3008004E5192403FDE43518A905753F01F514
:100AB3004089418009753F00754000754100E5405C
:100AC3004541453F6028AB3FAA40A9411205F6FEC8
:100AD300547FFDD3940740047C088002AC058C420C
:100AE300EE5480FEC3ED95424E12063C800BEF7030
:100AF300047E0180027E008E427449254DF8A64291
:100B0300054DE54DC394045003020A4DAB43AA447B
:100B1300A945748812063CAB43E5452401F9E43545
:100B230044FA755100755200755349755400755553
:100B3300041218EB8546568547578548587559085A
:090B4300AB43AA44A94502182C99
:10169E008F3F90E097E0FEA3E054F064607003EE9D
:1016AE00641160037F012290E030E070037F0F220F
:1016BE00E53F7003308108E53FB401062080037FCB
:1016CE00102290E09CE0B53F037F0122E4F511D299
:1016DE0007121991AF3F90E09CEFF024FF92B59066
:0916EE00E680E054F7F07F0022D1
:101ACA0090E678E0541824F06008240870087F50E3
:081ADA0080067F518002E4FF49
:011AE20022E1
:0611D1007B007A0079406A
:0C11D7008F458C468D478B488A49894A19
:1011E300E4F54BF54C754D03FDF54EF54FE5452400
:1011F300AF600D047012754B00754C017D018008C2
:10120300754B00754C02E4FDE5456059E54C454BD3
:101213006053E54690E099F0E547A3F0C2AF7499B7
:101223002DF582E434E0AD82FCAB4CAF451215D60C
:10123300754E008F4FD2AF7F0A7E001217E6E54F3F
:10124300454E6014C2AF7CE07D4E7B01AF45121169
:101253002C754E008F4FD2AF90E04EE0AB48AA49B9
:09126300A94A12063CAE4EAF4F41
:01126C00225F
:0C13FB008F4C8C4D8D4E8B4F8A508951C9
:10140700E4F552F553755403FDF555F556E54C24AF
:10141700AF600D0470127552007553027D0180088C
:10142700755200755303E4FDE54C603FE5534552A3
:101437006039E54D90E099F0E54EA3F0AB4FAA5027
:10144700A9511205F690E09BF0C2AF74992DF58271
:10145700E434E0AD82FCAB53AF4C1215D6755500A2
:0F1467008F56D2AF7F0A7E001217E6AE55AF56F2
:011476002253
:10005600E4F531F532F535F53AF53BF53CF53DE598
:10006600AA548460030204FF90E694E0FE90E695AD
:10007600E0FBEEF53AEBF53BC39405E53A94004018
:100086000790F404E0FD80027DFFED12072400CE08
:100096000102180502420702A10903090B011C0E01
:1000A60000E40F018A1101AF1304712503333103F4
:1000B600853203983403E63503FD36041A370316F2
:1000C600450328470000047F75310075320790FC10
:1000D600047481F0A37413F0E4A3F00204A27F0F6A
:1000E600121AB075310075320690FC047480F0E483
:1000F600A3F0753505F511FE74002535F9EE34F4D7
:10010600FA7B01121477400690FC05740EF0121368
:100116007D7F8F0202127F0E121AB0753100753282
:1001260005121ACA8F3D90FC04748EF0121ACA8FFB
:100136003DE53D64516019E53D645060137531003D
:1001460075320690FC047480F0A3740BF00204A2CE
:1001560012137D74002532F974FC3531FA7B01C027
:10016600038B517552E075534F75540075552CD05D
:10017600031218EB742C2532F532E43531F5317F54
:100186008E02021275310075320790FC047491F0EC
:1001960090E678E090FC05F030B4047F0180027FA1
:1001A6000090FC06EFF00204A27F13121AB075311C
:1001B6000075321D90FC047493F0121ACA8F3D75B7
:1001C600381D753900753600753705D3E53994182D
:1001D600E538941D5034E53DB4510E7B007A007924
:1001E6003EAD39AC38FF1211D774002537F582744D
:1001F600FC3536F583E53EF00539E53970020538FC
:100206000537E53770C5053680C17F93121AB002EF
:1002160004A275310075320690FC047480F0E4A3E4
:10022600F090F405E090E031F0E014706530B00332
:1002360002032D90FC057401F0020301753100756F
:10024600320690FC047480F0E4A3F0753507AF35F0
:10025600FEC3E53B9FF534E53A9EF53390E031E089
:1002660014702F20B00330B42074002FF974F43EBC
:10027600FA7B01AF34AE331216F75004E40203F6EC
:1002860090FC05740CF00204A290FC057402F002C6
:1002960004A290FC057403F00204A27531007532C5
:1002A6000690FC047480F0E4A3F090E031E024FEB4
:1002B600604904704030B43590E6017403F07F6401
:1002C6007E00121AE912137D7EE07F4F7CE07D9D51
:1002D6001215667EE07F9DAD1CAC1B12174E5005B5
:1002E600120A13801690FC05740EF0800E90FC0521
:1002F600740DF0800690FC057403F0E490E031F094
:100306000204A2E4F531F5327F021217A00204A21C
:1003160012137D120E38E4FF12169EE4FF1217A088
:1003260080057F011217A0121A950204A2753100EA
:1003360075320690FC047480F0E4A3F090F405E0B6
:10034600F53CE4F511E53C64016004E53C7012906F
:10035600E097E0FEA3E054F064607003EE64116081
:1003660002807490E030E07002805A20B40990FC5C
:1003760005740DF00204A2853C11C2010204A275A7
:10038600310075320690FC0474B2F0A3E511F00258
:1003960004A275310075320690FC047480F0E4A363
:1003A600F090F405E0F53CE4F511C201AF3C1216FD
:1003B6009EEF24F1600F1460152410701AE4F531D5
:1003C600F5320204A290FC05740FF00204A290FC20
:1003D600057410F00204A290FC057401F00204A258
:1003E60075310075320690FC0474B5F090E09CE01F
:1003F60090FC05F00204A275310075320690FC04EB
:1004060074B6F0A280E43325E0FFA281E4334FA363
:10041600F00204A2853A31853B3290FC0474B7F0B1
:10042600753505C3E53B9535F534E53A9400F53366
:1004360074002535F582E434F4F583E06488605C65
:10044600AF357E0074002FF9EE34F4FA7B01C00359
:10045600C00174002FF9EE34FC8B56F55789588588
:100466003459D001D00312182C8031753100753201
:100476000590FC0474A5F080237531007532069052
:10048600FC047480F0C3E53B9405E53A94005006FD
:10049600A37407F0800690FC057406F090F404E05F
:1004A600B48004A3E0701290F404E06405600FE0E9
:1004B6006407600AE064096005E490E031F0E53223
:1004C6004531602CE532FD90FC00F0E531FFA3F0EC
:1004D60090F402E090FC02F090F403E090FC03F04C
:1004E60090E69CEFF000000090E69DEDF000000025
:0904F60090E6957480F00000000E
:0104FF0022DA
:02004100D322C8
:0800030090E6BAE0F51DD322DE
:101B9E0090E740E51DF0E490E68AF090E68B04F0C5
:021BAE00D32240
:081BE20090E6BAE0F51AD322E7
:101BB00090E740E51AF0E490E68AF090E68B04F0B6
:021BC000D3222E
:101A6D0090E6B9E0242F600D04701990E604E0FFB4
:101A7D00430780800890E604E0FF53077F000000D5
:071A8D00EFF08002D322C339
:011A9400222F
:101B1800C0E0C083C082D2025391EF90E65D7401A9
:081B2800F0D082D083D0E0323E
:101B5F00C0E0C083C0825391EF90E65D7404F0D073
:061B6F0082D083D0E032B9
:101B7500C0E0C083C0825391EF90E65D7402F0D05F
:061B850082D083D0E032A3
:10192500C0E0C083C08285120D85130E850E8285A9
:101935000D83A37402F085090F850A108510828531
:101945000F83A37407F05391EF90E65D7410F0D008
:0619550082D083D0E032D5
:101B3000C0E0C083C082D2045391EF90E65D740888
:081B4000F0D082D083D0E03226
:1018AE00C0E0C083C08290E680E030E72085090D5D
:1018BE00850A0E850E82850D83A37402F085120FA4
:1018CE00851310851082850F83A37407F05391EF53
:0D18DE0090E65D7420F0D082D083D0E0321F
:0F1BD300000102020303040405050300000000E3
:08109F00011100C1010108006C
:03000B00020D26BD
:100D2600C0E0C0F0C083C082C0D075D000C000C093
:0D0D360001C002C003C004C005C006C00714
:100D430078227C007D007BFF7A1B79DD7E007F05A6
:100D53001205D07F0590E09CE0F527C205E5086009
:100D6300051508020E1D750805E5116401600330C1
:100D7300012D7556007557007558228F597B007ADF
:100D830000792212182CE5245401F528E524540295
:100D9300700D7F011217A0121A95751100C201E59B
:100DA3001164017029E528700E90E09CE060047FD7
:100DB3000080157F018011A280308101B3500F3074
:100DC30081047F0080027F018F27D205D201300585
:100DD3004990E097E0FEA3E054F064607003EE6492
:100DE30011703790E030E0603190E09CE06527605F
:100DF30029E5277003308122E527B4010330801AE7
:100E0300751100D207121991AF2790E09CEFF024DF
:0A0E1300FF92B590E680E054F7F07E
:100E1D00D007D006D005D004D003D002D001D00029
:0B0E2D00D0D0D082D083D0F0D0E032D3
:1014EF00C204C200D203C20212000E121B48121213
:1014FF00F9C2B5750B0C750C0075140C75151275BA
:10150F00090C750A1C75120C75137085120F851353
:10151F001075160C7517B412137D120E38D2E843DE
:10152F00D82090E668E04409F090E65CE0443DF096
:10153F007F011217A0D2AFD28C538EF8C204C2AF64
:10154F00120056D2AF3002051207EBC2023004EE82
:07155F00C2041219EE80E73F
:0B00460090E50DE030E402C322D3225D
:1007EB0090E6B9E070030208B014700302092524E7
:1007FB00FE70030209A024FB70030208AA14700305
:10080B000208A414700302089814700302089E24B3
:10081B000560030209FF1200414003020A0B90E638
:10082B00BBE024FE602714603E24FD60111460279A
:10083B0024067056E50B90E6B3F0E50C80421200EF
:10084B00465044E51490E6B3F0E5158033E50D9082
:10085B00E6B3F0E50E802985120F851310E50F9096
:10086B00E6B3F0E510801990E6BAE0FF121A1AAA67
:10087B0006A9077B01EA494B600DEE90E6B3F0EF5A
:10088B0090E6B4F0020A0B0209FA0209FA121BB045
:10089B00020A0B121BE2020A0B120003020A0B12D2
:1008AB001B9E020A0B90E6B8E0247F6015146019BA
:1008BB0024027063A200E43325E0FFA203E4334F6C
:1008CB008041E490E740F0803F90E6BCE0547EFF2F
:1008DB007E00E0D394807C0040047D0180027D008B
:1008EB00EC4EFEED4F24D3F582741B3EF583E4935F
:1008FB00FF3395E0FEEF24A1FFEE34E68F82F58304
:10090B00E0540190E740F0E4A3F090E68AF090E623
:10091B008B7402F0020A0B0209FA90E6B8E024FE8F
:10092B00601624026003020A0B90E6BAE0B40105DC
:10093B00C200020A0B0209FA90E6BAE0705590E683
:10094B00BCE0547EFF7E00E0D394807C0040047DAD
:10095B000180027D00EC4EFEED4F24D3F582741B1B
:10096B003EF583E493FF3395E0FEEF24A1FFEE34D5
:10097B00E68F82F583E054FEF090E6BCE0548013E2
:10098B001313541FFFE0540F2F90E683F0E0442025
:10099B00F0806D805A90E6B8E024FE601924027056
:1009AB004E90E6BAE0B40104D200805490E6BAE06F
:1009BB006402604C803990E6BCE0547EFF7E00E020
:1009CB00D394807C0040047D0180027D00EC4EFEC0
:1009DB00ED4F24D3F582741B3EF583E493FF3395DF
:1009EB00E0FEEF24A1FFEE34E68F82F583800D90BD
:1009FB00E6A08008121A6D500790E6A0E04401F0C3
:070A0B0090E6A0E04480F03A
:010A120022C1
:0300330002002E9A
:04002E0053D8EF3282
:1010A7006080E0B9292E43C9A2D87C013D3654A1FE
:1010B700ECF0061362A705F3C0C7738C98932BD97E
:1010C700BC4C82CA1E9B573CFDD4E01667426F1882
:1010D7008A17E512BE4EC4D6DA9EDE49A0FBF58E0E
:1010E700BB2FEE7AA968799115B2073F94C2108990
:1010F7000B225F21807F5D9A5A903227353ECCE7DD
:10110700BFF79703FF1930B348A5B5D1D75E922A29
:10111700AC56AAC64FB838D296A47DB676FC6BE219
:041127009C7404F1BF
:080B4C008C448D45AB07AA069D
:100B5400E4F546F547C3E5479545E5446480F8E583
:100B6400466480984003020BFBE54725E0FFE54619
:100B740033FE74B92FF58274E03EF583E0FF7E0006
:100B8400AC44AD451206828C488D49E54725E0FF0B
:100B9400E54633FE74BA2FF58274E03EF583E0FF38
:100BA4007E00AC44AD451206828C4A8D4BE5496506
:100BB4004B7004E548654A6030EB2549F582EA3517
:100BC40048F583E0F9EB254BF582EA354AF583E0F5
:100BD400FFEB2549F582EA3548F583EFF0EB254B29
:100BE400F582EA354AF583E9F00547E547600302F3
:0B0BF4000B590546020B597E007F01E3
:010BFF0022D3
:0C0FCE008E448F458C468D478A488B4925
:100FDA00E54545446006E54745467004E4FEFF22C0
:100FEA00E4F54AF54BC3E54B9549E5486480F8E5D5
:100FFA004A648098507BE4F54CF54DE547254BF55E
:10100A0082E546354AF583E4F0C3E54D9549E5485E
:10101A006480F8E54C6480985049E54D254B24B925
:10102A00F582E434E0F583E0FFE545254DF582E5F8
:10103A0044354CF583E0FEEF8EF0A4FFE547254BDF
:10104A00F582E546354AF583E02FFFE547254BF55E
:10105A0082E546354AF583EFF0054DE54D70AA0560
:10106A004C80A6054BE54B6003020FEF054A020FC1
:05107A00EF7E007F0184
:01107F00224E
:1019C0001205F6FF90000312060F12063C9000036A
:1019D000EF12064E90000212060FFF900001120651
:0E19E0000F90000212064E900001EF02064E1C
:080F07008E448F458C468D4796
:100F0F00E4F548F549E547AE467802CEA2E713CEA1
:100F1F0013D8F8FFC3E5499FEE6480F8E548648075
:100F2F00984003020FC9E549AE487802C333CE3368
:100F3F00CED8F92545FFEE3544FAA9077B018B4A38
:100F4F00F54B894C74BA2549F582E434E0F583E01A
:100F5F00541FFFE48F50F54FF54EF54D1219C0ABEE
:100F6F004AAA4BA94C1206DEC374209550F9F81209
:100F7F0006CBC004C005C006C007A94C1206DEA9E7
:100F8F0050A8011206B8D003D002D001D000EF4B09
:100F9F00FFEE4AFEED49FDEC48FCAB4AAA4BA94CCB
:100FAF001206FEAB4AAA4BA94C1219C00549E549D6
:0E0FBF006003020F140548020F147E007F012C
:010FCD002201
:10195B00D3ED9410EC64809480402AED1D70011C33
:10196B00142FF582EE3CF583E0FB547F24B9F5820E
:10197B00E434E0F583E0F9540F2FF582E43EF58370
:05198B00E06BF080CBD1
:011990002234
:1019EE0090E682E030E004E020E60B90E682E03004
:1019FE00E119E030E71590E680E04401F07F147EB7
:0C1A0E00001217E690E680E054FEF02283
:1019910030070990E680E0440AF0800790E680E095
:1019A1004408F07FDC7E051217E690E65D74FFF0D7
:0F19B10090E65FF05391EF90E680E054F7F0225C
:1017E6008E578F5890E600E054187012E558240181
:1017F600FFE43557C313F557EF13F558801590E6F8
:1018060000E05418FFBF100BE55825E0F558E557E2
:1018160033F557E5581558AE57700215574E600503
:06182600121BC280EE223D
:06112C008C508D51AE074E
:10113200EB70037F012290E678E020E6F990E678F2
:101142007480F0EE25E0440190E679F090E678E0D4
:1011520030E0F990E678E020E26BE030E167BB0135
:101162000790E678E04420F090E679E0F5521BEB38
:10117200603090E678E030E0F990E678E020E245F1
:10118200BB010790E678E04420F090E679E0FF05A5
:1011920051E551AC507002055014F5828C83EFF08A
:1011A20080CC90E678E030E0F990E678E020E21535
:1011B20090E678E04440F090E679E08551828550EF
:0E11C20083F07F012290E678E04440F07F0049
:0111D00022FC
:1015D60090E678E020E6F990E6787480F0EF25E072
:1015E60090E679F090E678E030E0F990E678E02051
:1015F600E23AE030E136EBD3940040260DEDAE043E
:1016060070010C14F5828E83E090E679F01B90E66B
:1016160078E030E0F990E678E020E210E020E1D6CC
:10162600800A90E678E04440F07F012290E678E078
:051636004440F07F00BC
:01163B00228C
:021A1A00A9071A
:101A1C00AE16AF178F828E83A3E064037017AD01EF
:101A2C0019ED7001228F828E83E07C002FFDEC3E3D
:081A3C00FEAF0580DFE4FEFFB0
:011A4400227F
:101BC2007400F58690FDA57C05A3E582458370F936
:011BD20022F0
:0300000002126D7C
:0C126D00787FE4F6D8FD75815A0212B4B7
:10050000E709F608DFFA8046E709F208DFFA803EDD
:1005100088828C83E709F0A3DFFA8032E309F608CA
:10052000DFFA8078E309F208DFFA807088828C8332
:10053000E309F0A3DFFA806489828A83E0A3F608E6
:10054000DFFA805889828A83E0A3F208DFFA804CC0
:1005500080D280FA80C680D4806980F28033801097
:1005600080A680EA809A80A880DA80E280CA803300
:1005700089828A83ECFAE493A3C8C582C8CCC58378
:10058000CCF0A3C8C582C8CCC583CCDFE9DEE78048
:100590000D89828A83E493A3F608DFF9ECFAA9F0C7
:1005A000EDFB2289828A83ECFAE0A3C8C582C8CC1D
:1005B000C583CCF0A3C8C582C8CCC583CCDFEADE36
:1005C000E880DB89828A83E493A3F208DFF980CC98
:1005D00088F0EF60010E4E60C388F0ED2402B40491
:1005E0000050B9F582EB2402B4040050AF23234538
:0605F00082239005507308
:1005F600BB010689828A83E0225002E722BBFE0203
:09060600E32289828A83E4932235
:10060F00BB010CE58229F582E5833AF583E02250A0
:10061F0006E92582F8E622BBFE06E92582F8E222EA
:0D062F00E58229F582E5833AF583E4932204
:10063C00BB010689828A83F0225002F722BBFE019D
:02064C00F32297
:10064E00F8BB010DE58229F582E5833AF583E8F0E2
:10065E00225006E92582C8F622BBFE05E92582C88E
:02066E00F22276
:10067000EF8DF0A4A8F0CF8CF0A428CE8DF0A42E9E
:02068000FE2258
:10068200C2D5EC30E709B2D5E4C39DFDE49CFCEE93
:1006920030E715B2D5E4C39FFFE49EFE12074AC3BA
:1006A200E49DFDE49CFC800312074A30D507C3E4B5
:0606B2009FFFE49EFE2202
:1006B800E8600FECC313FCED13FDEE13FEEF13FF20
:0306C800D8F12244
:1006CB00E8600FEFC333FFEE33FEED33FDEC33FC8D
:0306DB00D8F12231
:1006DE00BB010789828A830207AB5005E9F802073E
:1006EE009FBBFE05E9F80207B789828A830207C31A
:1006FE00BB010789828A830207185005E9F80207B1
:0A070E00D3BBFE05E9F80207DF2265
:0C071800ECF0A3EDF0A3EEF0A3EFF02254
:10072400D083D082F8E4937012740193700DA3A364
:1007340093F8740193F5828883E473740293686078
:06074400EFA3A3A380DF78
:101279000214EFE493A3F8E493A34003F68001F288
:1012890008DFF48029E493A3F85407240CC8C33376
:10129900C4540F4420C8834004F456800146F6DF45
:1012A900E4800B0102040810204080901080E47E45
:1012B900019360BCA3FF543F30E509541FFEE4933A
:1012C900A360010ECF54C025E060A840B8E493A301
:1012D900FAE493A3F8E493A3C8C582C8CAC583CA2C
:1012E900F0A3C8C582C8CAC583CADFE9DEE780BEE4
:01112B0000C3
:10074A00BC000BBE0029EF8DF084FFADF022E4CC93
:10075A00F875F008EF2FFFEE33FEEC33FCEE9DEC5C
:10076A00984005FCEE9DFE0FD5F0E9E4CEFD22EDA2
:10077A00F8F5F0EE8420D21CFEADF075F008EF2FEC
:10078A00FFED33FD4007985006D5F0F222C398FDDD
:05079A000FD5F0EA227A
:0C079F00E6FC08E6FD08E6FE08E6FF2286
:0C07AB00E0FCA3E0FDA3E0FEA3E0FF22C1
:0C07B700E2FC08E2FD08E2FE08E2FF227E
:1007C300E493FC740193FD740293FE740393FF227C
:0C07D300ECF608EDF608EEF608EFF62252
:0C07DF00ECF208EDF208EEF208EFF22256
:00000001FF
