# 
# $Id: USB_FW.hex 7419 2009-09-30 12:00:43Z dima $ 
# 
:03004300021D009B
:03005300021D008B
:101D0000021CC000021D4500021D2F00021CD8004D
:081D1000021AED00021A760030
:100E00001201000200000040AAAAAAAAAAAA01028E
:100E100003010A0600020000004001000902370039
:100E2000020100C0000904000002FFFFFF040705E3
:100E30000202000200070586020002000904010008
:100E400002FFFFFF050705040200020007058802F4
:100E5000000200001201000200000040E4E4511111
:100E60000000010203010A06000200000040010028
:100E700009023700020100C0320904000002FFFF2E
:100E8000FF0407050202400000070586024000003B
:100E90000904010002FFFFFF0507050402400000EE
:100EA0000705880240000006040016001400120026
:100EB0000A00260004030904160358006F0072009C
:100EC00063006F006D0020004C00540044001403C8
:100ED00041007300740072006900620061006E00DE
:100EE0006B001203530065007200690061006C0022
:100EF0004E006F000A0346005000470041002603E1
:100F00004D0061006E00610067006D0065006E00BD
:100F10007400500072006F0063006500730073007E
:060F20006F0072000000EA
:1011DC0041E0360041E0B40042E0AF000041E037AE
:1011EC0000025DE083025AE07743E0B10000004C5E
:0E11FC00E038373431384D20202020202000EC
:101C0D008B4D8A4E894FE5521552AE5170021551CA
:101C1D004E6014AB4D054FE54FAA4E7002054E14A4
:081C2D00F9ED1206E980DF2247
:101AB3008B4D8A4E894FE5541554AE53700215531E
:101AC3004E6026AB500552E552AA517002055114DF
:101AD300F91206A3FFAB4D054FE54FAA4E70020561
:0A1AE3004E14F9EF1206E980CD223F
:10000E00E490E670F075B5E653B5EE43B28053B2A8
:10001E00F4C2B3C2B5C2B67F32FE121C96D2B6225D
:101D1800538EF75389FB5389F74389015389FDE4AF
:071D2800F58AF58CD2A92217
:101731008C418D42AA06A9077550018A51895275BB
:10174100530075541C7B017AE0794A121AB390E078
:1017510062E0FCA3E0FDA3E0FEA3E064D1FFEE6440
:101761008DFEED644CFDEC6449FC90E0621207C50E
:101771007EE07F4A7D1C7C0012129E7EE07F4A7BC8
:101781001C7A00AD42AC411213527D1C7C00AF4269
:10179100AE411211157D1C7C00AF42AE41021B23EC
:081916008E418F428C438D4489
:10191E00C208121C77BF5004D208803BE4F545F58F
:10192E0046E5442546F582E5433545F583E0FFE57A
:10193E00422546F582E5413545F583E0B5070E05AE
:10194E0046E546700205456410454570D4E546648B
:09195E001045457002D208A208F0
:01196700225D
:100F2600121C778F3EE4F542F543AD43AC421214F2
:100F36000874672543F582E434E0F583E53FF00560
:100F460043E54370020542C39408E54264809480F9
:100F560040D890E067E0B4C008754000754108804D
:100F66000675401D754136754200754308C3E54355
:100F76009410E5426480948050231214047467250B
:100F860043F582E434E0F583E53FF00543E543703D
:100F96000205420541E54170D4054080D0753FFF0A
:100FA60075401D754119754200754310C3E543949C
:100FB6002CE542648094805033E53EB4510E7B00AC
:100FC6007A00793FAD41AC40FF1214107467254397
:100FD600F582E434E0F583E53FF00543E54370022E
:100FE60005420541E54170C4054080C075401D7548
:100FF600413EE4F53FF542F543C3E5439406E54239
:1010060064809480502FE53EB4510A90E067E0B4C6
:10101600C20312140474442543F582E434E0F583D4
:10102600E53FF00543E543700205420541E54170A1
:0F103600C8054080C490E067E0B4C20374C0F006
:011045002288
:0A1807008E418F428B438A448945CD
:101811007E00E5422DF54AEE3541F549121C778FE0
:1018210046E5466451600BC3E5429410E5419400DE
:101831005035854147854248C3E548954AE5479576
:10184100495024AB43AA44A945AD48AC47AF461221
:1018510015C60548E5487002054774012545F5455B
:07186100E43544F54480D199
:01186800225D
:061642008B3E8A3F894047
:10164800D2077550017551E075526775530075548E
:10165800107B017AE07993121AB3E5402410F9E47B
:10166800353F853E50F551895275530075541C7BA2
:10167800017AE079A3121AB37EE07F937CE07D1AA9
:101688001217317EE07F1AE540241CF9E4353FFC4F
:10169800AD011219165016AB3EE5402410F9E43599
:1016A8003FFA7D1C7F197E1D1218078002C207A20F
:0116B800072A
:0116B900220E
:101046007F03121BE2EF2402FFE43EA907753E016F
:10105600F53F894090E068E0FFE50F2408F582E45B
:10106600350EF583EFF090E069E0FFE50F2409F512
:1010760082E4350EF583EFF090E06AE0FFE50F2499
:101086000AF582E4350EF583EFF090E06BE0FFE5BC
:101096000F240BF582E4350EF583EFF090E06CE05B
:1010A600FFE50F240CF582E4350EF583EFF090E0B2
:1010B6006DE0FFE50F240DF582E4350EF583EFF0C4
:1010C6007F087E00E4FDEDC39408502874672FF571
:1010D60082E434E0F583E0FCAB3EAA3FA94075F01C
:1010E60002EDA4F58285F083EC1206FB0D0FBF001E
:1010F600010E80D2E55B2404F582E4355AF583E0DF
:0E11060030E0047F0180027F0090E036EFF0C1
:0111140022B8
:10196800AE0790E06AE02EFFE50F240AF582E43521
:101978000EF583EFF0E50F240BF582E4350EF583C1
:10198800E0FEE50F240AF582E4350EF583E0FDED6F
:10199800FF90E0AFEEF0A3EFF0D207121B5990E6EC
:0519A80080E054F7F09F
:0119AD002217
:1014A60090E600E054E74410F090E60174C0F09036
:1014B600E6107420F000000090E611F000000090A5
:1014C600E6047480F0000000740FF0000000E4F001
:1014D60000000090E6187410F0000000E490E61991
:1014E600F000000090E61A7408F0000000E490E6B0
:1014F6001BF000000090E6497482F0000000F00046
:10150600000090E6247402F0000000E490E625F066
:1015160000000090E6957480F0000000F0000000E6
:1015260043AF017B017AE07914755100755206E4E8
:04153600FD021C0D89
:061C9000D2877F0A7E00EE
:101C96007C007D1812071DEF1FAC0670011E4C70EC
:021CA600F62224
:0A1869008E3E8F3F8B408A4189427A
:10187300E4F543F544C3E544953FE543953E503BCA
:10188300AB40AA41A9428544828543831206BCFF2B
:10189300E4FBFAC2B2EF1392B7EFC313FFD2B20B5A
:1018A300BB00010AEB64084A70E9C2B220B002C36C
:0C18B300220544E54470BE054380BAD312
:0118BF002206
:101CA80090E60174C0F0C2B67F967E00121C96D2F0
:081CB800B67F327E00021C968B
:101D5B00D2B1121C90C2B1121C92C2877F0A7E00B4
:031D6B00021C96C1
:021A3600AB07FC
:101A3800E4F9FAEBC413131354011392B17F027E35
:101A480000121C96D2877F057E00121C96E925E0BD
:101A5800FFA283E4334FF97F057E00121C96EB2525
:0D1A6800E0FBC287121C920ABA08C8AF0149
:011A7500224E
:0619F4008B528A53895456
:1019FA00C2AF121D5BE4F559E559C395585027ABA0
:101A0A0052AA53A9548559827583001206BCFF1243
:101A1A001A36AB55AA56A957855982758300EF1213
:0B1A2A0006FB055980D2120036D2AF37
:011A3500228E
:0B003600C2B1121C92121C90D2B12229
:101C5D00753E8F8F3F7555007556007557487558F1
:0A1C6D00027B007A00793E0219F4B0
:100C1A00753E00753F007540007542017543E075E9
:100C2A0044007545017546E0754708E4FF7B017A83
:100C3A00E07900F551755208FD121C0DAB42AA432A
:100C4A00A94474011206E9E4F54CE54CC454F0AB2E
:100C5A0042AA43A9449000011206FB8545558546E0
:100C6A00568547577558081219F4AB45AA46A9473D
:100C7A009000021206BCFF530770EF24E0601724AD
:100C8A00F0601924F0601B2430702A753E01855AE1
:100C9A003F855B408028E55B2401800AE55B2402EE
:100CAA008004E55B2403FDE4355AA905753E01F588
:100CBA003F89408009753E00753F00754000E53F59
:100CCA004540453E6028AB3EAA3FA9401206A3FE16
:100CDA00547FFDD3940740047C088002AC058C4104
:100CEA00EE5480FEC3ED95414E1206E9800BEF707B
:100CFA00047E0180027E008E417448254CF8A6418C
:100D0A00054CE54CC394045003020C54AB42AA436D
:100D1A00A94474881206E9AB42E5442401F9E43592
:100D2A0043FA755000755100755248755300755451
:100D3A0004121AB38545558546568547577558088E
:090D4A00AB42AA43A9440219F4CA
:1018C0008F3E90E0AFE0FEA3E054F064607003EE62
:1018D000641160037F012290E036E070037F0F22E5
:1018E000E53E7003308108E53EB401062080037FA9
:1018F000102290E0B4E0B53E037F0122D207121B14
:1019000059AF3E90E0B4EFF024FF92B590E680E04E
:0619100054F7F07F0022F5
:101C770090E678E0541824F06008240870087F5034
:081C870080067F518002E4FF9A
:011C8F002232
:0C140400AD41AC407B007A00793FAF3E68
:0C1410008F448C458D468B478A488949E3
:10141C00E4F54AF54B754C03FDF54DF54EE54424CA
:10142C00AF600D047012754A00754B017D01800888
:10143C00754A00754B02E4FDE5446059E54B454A9D
:10144C006053E54590E0B1F0E546A3F0C2AF74B14E
:10145C002DF582E434E0AD82FCAB4BAF441217A106
:10146C00754D008F4ED2AF7F0A7E001219AEE54E3D
:10147C00454D6014C2AF7CE07D667B01AF44120D1C
:10148C0053754D008F4ED2AF90E066E0AB47AA4843
:09149C00A9491206E9AE4DAF4E5C
:0114A5002224
:0C15C6008F4B8C4C8D4D8B4E8A4F895002
:1015D200E4F551F552755303FDF554F555E54B24E9
:1015E200AF600D0470127551007552027D018008C2
:1015F200755100755203E4FDE54B603FE5524551DC
:101602006039E54C90E0B1F0E54DA3F0AB4EAA4F46
:10161200A9501206A390E0B3F0C2AF74B12DF582C7
:10162200E434E0AD82FCAB52AF4B1217A17554000B
:0F1632008F55D2AF7F0A7E001219AEAE54AF555E
:011641002286
:10005600E4F530F531F534F539F53AF53BF53CE59F
:10006600AA548460030205AC90E694E0FE90E695FF
:10007600E0FBEEF539EBF53AC39405E5399400401B
:100086000790F404E0FD80027DFFED1207D100CE5B
:100096000102B30502FA0703590903BD0B011C0E41
:1000A60000E40F018A11024A13051E2503E43104F8
:1000B600343204473404933504AA3604C73703CAD6
:1000C6004503D9470000052C75300075310790FCB3
:1000D600047481F0A37414F0E4A3F002054F7F0FBB
:1000E600121C5D75300075310690FC047480F0E4D6
:1000F600A3F0753405F514FE74002534F9EE34F4D6
:10010600FA7B01121642400690FC05740EF0120F9F
:10011600267F8F0202AD7F0E121C5D753000753191
:1001260005121C778F3C90FC04748EF0121C778F9E
:100136003CE53C64516019E53C6450601375300041
:1001460075310690FC047480F0A3740BF002054F21
:10015600120F2674002531F974FC3530FA7B01C084
:10016600038B507551E075526775530075542CD04A
:1001760003121AB3742C2531F531E43530F5307F8E
:100186008E0202AD75300075310790FC047491F053
:1001960090E678E090FC05F030B4047F0180027FA1
:1001A6000090FC06EFF074002531F974FC3530FA46
:1001B6007B01755100755212E4FD121C0D74002569
:1001C60031F974FC3530FA7B01C0038B507551E070
:1001D600755238755300755406D003121AB3740657
:1001E6002531F531E43530F530FE74002531F974EA
:1001F600FC3EFA7B01C0038B507551E075521475B5
:100206005300755406D003121AB374062531F5311E
:10021600E43530F530FE74002531F974FC3EFA7B86
:1002260001C0038B507551E07552447553007554E7
:1002360006D003121AB374062531F531E43530F5CC
:100246003002054F7F13121C5D75300075311D900D
:10025600FC047493F0121C778F3C75371D753800BB
:10026600753500753605D3E5389418E537941D5075
:1002760034E53CB4510E7B007A00793DAD38AC379D
:10028600FF12141074002536F58274FC3535F5839B
:10029600E53DF00538E538700205370536E5367078
:1002A600C5053580C17F93121C5D02054F75300070
:1002B60075310690FC047480F0E4A3F090F405E038
:1002C60090E037F0E014702A30B01E121CA875506A
:1002D600017551F47552067553007554067B017A03
:1002E600E07914121AB302054F90FC057401F0026E
:1002F60003B5805675300075310690FC047480F0A5
:10030600E4A3F0753407AF34FEC3E53A9FF533E551
:10031600399EF53290E037E014702F20B00330B4E8
:100326002074002FF974F43EFA7B01AF33AE32121B
:1003360018695004E40204A390FC05740CF002054D
:100346004F90FC057402F002054F90FC057403F013
:1003560002054F75300075310690FC047480F0E498
:10036600A3F090E037E014704030B43590E60174A5
:1003760003F07F647E00121C96120F267EE07F67D4
:100386007CE07DB51217317EE07FB5AD5EAC5D12C7
:1003960019165005120C1A801690FC05740EF08082
:1003A6000E90FC05740DF0800690FC057403F0E4D5
:1003B60090E037F002054FE4F530F5317F0212196F
:1003C6006802054F120F26121046E4FF1218C0E409
:1003D600FF80027F01121968121CA802054F7530B2
:1003E6000075310690FC047480F0E4A3F090F405E7
:1003F600E0F53BE4F514E53B64016004E53B70126F
:1004060090E0AFE0FEA3E054F064607003EE641188
:100416006002807090E036E07002805620B4099049
:10042600FC05740DF002054F853B1402054F75302F
:100436000075310690FC0474B2F0A3E514F00205D1
:100446004F75300075310690FC047480F0E4A3F01B
:1004560090F405E0F53BE4F514AF3B1218C0EF2429
:10046600F1600F1460152410701AE4F530F53102AE
:10047600054F90FC05740FF002054F90FC057410B3
:10048600F002054F90FC057401F002054F7530002F
:1004960075310690FC0474B5F090E0B4E090FC056C
:1004A600F002054F75300075310690FC0474B6F005
:1004B600A280E43325E0FFA281E4334FA3F00205D6
:1004C6004F853930853A3190FC0474B7F0753405A0
:1004D600C3E53A9534F533E5399400F532740025D1
:1004E60034F582E434F4F583E06488605CAF347EEE
:1004F6000074002FF9EE34F4FA7B01C003C00174D6
:10050600002FF9EE34FC8B55F5568957853358D0B4
:1005160001D0031219F4803175300075310590FC55
:100526000474A5F0802375300075310690FC0474C0
:1005360080F0C3E53A9405E53994005006A37407A4
:10054600F0800690FC057406F090F404E0B4800494
:10055600A3E0701290F404E06405600FE0640760A5
:100566000AE064096005E490E037F0E53145306063
:100576002CE531FD90FC00F0E530FFA3F090F4028D
:10058600E090FC02F090F403E090FC03F090E69C0F
:10059600EFF000000090E69DEDF000000090E6957B
:0605A6007480F00000006B
:0105AC00222C
:02004100D322C8
:0800030090E6BAE0F55FD3229C
:101D6E0090E740E55FF0E490E68AF090E68B04F0B1
:021D7E00D3226E
:080DF80090E6BAE0F55CD3229D
:101D800090E740E55CF0E490E68AF090E68B04F0A2
:021D9000D3225C
:101C350090E6B9E0242F600D04701990E604E0FFEA
:101C4500430780800890E604E0FF53077F0000000B
:071C5500EFF08002D322C36F
:011C5C002265
:101CC000C0E0C083C082D2025391EF90E65D740100
:081CD000F0D082D083D0E03295
:101D2F00C0E0C083C0825391EF90E65D7404F0D0A1
:061D3F0082D083D0E032E7
:101D4500C0E0C083C0825391EF90E65D7402F0D08D
:061D550082D083D0E032D1
:101AED00C0E0C083C08285151085161185118285D1
:101AFD001083A37402F0850C12850D138513828556
:101B0D001283A37407F05391EF90E65D7410F0D03B
:061B1D0082D083D0E0320B
:101CD800C0E0C083C082D2045391EF90E65D7408DF
:081CE800F0D082D083D0E0327D
:101A7600C0E0C083C08290E680E030E720850C108D
:101A8600850D11851182851083A37402F0851512C8
:101A9600851613851382851283A37407F05391EF7D
:0D1AA60090E65D7420F0D082D083D0E03255
:0F1CF000000102020303040405050300000000C5
:0F120A00011400C10001080002090000010B00DF
:03000B00020AC026
:100AC000C0E0C0F0C083C082C0D075D000C000C0FC
:0D0AD00001C002C003C004C005C006C0077D
:100ADD0078227C007D007BFF7A1C79FA7E007F05F1
:100AED0012067D7F0590E0B4E0F527C205E4FEFD1A
:100AFD00E50860051508020BFF750805E51470077C
:100B0D00C200F50B020BB6A280308101B35010303C
:100B1D0081047C0080027C018C27D205020BB6304B
:100B2D00B41E7555007556007557228F587B007A87
:100B3D000079221219F4E5245401FDE5245402FE36
:100B4D00E50B24FE6023047053ED705D90E0B4E07E
:100B5D0060047F0080027F018F27D205D2007509C6
:100B6D0003750A84750B028040EE6005C200750B9B
:100B7D0001300035E50A4509600AE50A150A7029B4
:100B8D0015098025750903750A8490E0B4E06004A9
:100B9D007F0080027F018F27D205800DE514B401FF
:100BAD0005750B018003750B0030054690E0AFE035
:100BBD00FEA3E054F064607003EE6411703490E0B5
:100BCD0036E0602E90E0B4E065276026E5277003DF
:100BDD0030811FE527B40103308017D207121B594E
:100BED00AF2790E0B4EFF024FF92B590E680E0548B
:020BFD00F7F00F
:100BFF00D007D006D005D004D003D002D001D0004A
:0B0C0F00D0D0D082D083D0F0D0E032F3
:1016BA00C204C201D203C20212000E121D18121471
:1016CA00A6C2B5750E0E750F0075170E7518127530
:1016DA000C0E750D1C75150E75167085151285166E
:1016EA001375190E751AB4120F26121046D2E84352
:1016FA00D82090E668E04409F090E65CE0443DF0CA
:10170A007F01121968D2AFD28C538EF8C204C2AFCD
:10171A00120056D2AF300205120898C2023004EE07
:07172A00C204121BB680E7A8
:0B00460090E50DE030E402C322D3225D
:1008980090E6B9E0700302095D1470030209D224DE
:1008A800FE7003020A4D24FB7003020957147003FB
:1008B80002095114700302094514700302094B24FC
:1008C800056003020AAC1200414003020AB890E630
:1008D800BBE024FE602714603E24FD6011146027ED
:1008E80024067056E50E90E6B3F0E50F804212003C
:1008F800465044E51790E6B3F0E5188033E51090CC
:10090800E6B3F0E5118029851512851613E51290D6
:10091800E6B3F0E513801990E6BAE0FF121BE2AAED
:1009280006A9077B01EA494B600DEE90E6B3F0EFAC
:1009380090E6B4F0020AB8020AA7020AA7121D80BC
:10094800020AB8120DF8020AB8120003020AB81215
:100958001D6E020AB890E6B8E0247F60151460198D
:1009680024027063A201E43325E0FFA203E4334FBD
:100978008041E490E740F0803F90E6BCE0547EFF81
:100988007E00E0D394807C0040047D0180027D00DD
:10099800EC4EFEED4F24F0F582741C3EF583E49393
:1009A800FF3395E0FEEF24A1FFEE34E68F82F58356
:1009B800E0540190E740F0E4A3F090E68AF090E676
:1009C8008B7402F0020AB8020AA790E6B8E024FE87
:1009D800601624026003020AB890E6BAE0B4010582
:1009E800C201020AB8020AA790E6BAE0705590E67A
:1009F800BCE0547EFF7E00E0D394807C0040047D00
:100A08000180027D00EC4EFEED4F24F0F582741C4F
:100A18003EF583E493FF3395E0FEEF24A1FFEE3427
:100A2800E68F82F583E054FEF090E6BCE054801334
:100A38001313541FFFE0540F2F90E683F0E0442077
:100A4800F0806D805A90E6B8E024FE6019240270A8
:100A58004E90E6BAE0B40104D201805490E6BAE0C0
:100A68006402604C803990E6BCE0547EFF7E00E072
:100A7800D394807C0040047D0180027D00EC4EFE12
:100A8800ED4F24F0F582741C3EF583E493FF339513
:100A9800E0FEEF24A1FFEE34E68F82F583800D900F
:100AA800E6A08008121C35500790E6A0E04401F04B
:070AB80090E6A0E04480F08D
:010ABF002214
:0300330002002E9A
:04002E0053D8EF3282
:101219006080E0D1292E43C9A2D87C013D3654A172
:10122900ECF0061362A705F3C0C7738C98932BD90A
:10123900BC4C82CA1E9B573CFDD4E01667426F180E
:101249008A17E512BE4EC4D6DA9EDE49A0FBF58E9A
:10125900BB2FEE7AA968799115B2073F94C210891C
:101269000B225F21807F5D9A5A903227353ECCE769
:10127900BFF79703FF1930B348A5B5D1D75E922AB6
:10128900AC56AAC64FB838D296A47DB676FC6BE2A6
:041299009C7404F14C
:08129E008C438D44AB07AA0646
:1012A600E4F545F546C3E5469544E5436480F8E52F
:1012B60045648098400302134DE54625E0FFE54569
:1012C60033FE74D12FF58274E03EF583E0FF7E0095
:1012D600AC43AD4412072F8C478D48E54625E0FF09
:1012E600E54533FE74D22FF58274E03EF583E0FFC8
:1012F6007E00AC43AD4412072F8C498D4AE5486504
:101306004A7004E54765496030EB2548F582EA35C1
:1013160047F583E0F9EB254AF582EA3549F583E09E
:10132600FFEB2548F582EA3547F583EFF0EB254AD2
:10133600F582EA3549F583E9F00546E5466003029C
:0B13460012AB05450212AB7E007F01D8
:011351002279
:0C1352008E438F448C458D468A478B48A3
:10135E00E54445436006E54645457004E4FEFF223C
:10136E00E4F549F54AC3E54A9548E5476480F8E552
:10137E0049648098507BE4F54BF54CE546254AF5DB
:10138E0082E5453549F583E4F0C3E54C9548E547DC
:10139E006480F8E54B6480985049E54C254A24D189
:1013AE00F582E434E0F583E0FFE544254CF582E573
:1013BE0043354BF583E0FEEF8EF0A4FFE546254A5C
:1013CE00F582E5453549F583E02FFFE546254AF5DB
:1013DE0082E5453549F583EFF0054CE54C70AA05DD
:1013EE004B80A6054AE54A600302137305490213B2
:0513FE00737E007F0179
:0114030022C6
:101B88001206A3FF9000031206BC1206E990000398
:101B9800EF1206FB9000021206BCFF90000112062D
:0E1BA800BC9000021206FB900001EF0206FB4B
:081115008E438F448C458D468A
:10111D00E4F547F548E546AE457802CEA2E713CE95
:10112D0013D8F8FFC3E5489FEE6480F8E547648067
:10113D009840030211D7E548AE477802C333CE334A
:10114D00CED8F92544FFEE3543FAA9077B018B492B
:10115D00F54A894B74D22548F582E434E0F583E0F5
:10116D00541FFFE48F4FF54EF54DF54C121B88AB18
:10117D0049AA4AA94B12078BC37420954FF9F8124F
:10118D000778C004C005C006C007A94B12078BA97C
:10119D004FA801120765D003D002D001D000EF4B4C
:1011AD00FFEE4AFEED49FDEC48FCAB49AA4AA94BBE
:1011BD001207ABAB49AA4AA94B121B880548E54853
:0E11CD00600302112205470211227E007F01FD
:0111DB0022F1
:101B2300D3ED9410EC64809480402AED1D70011C69
:101B3300142FF582EE3CF583E0FB547F24D1F5822C
:101B4300E434E0F583E0F9540F2FF582E43EF583A6
:051B5300E06BF080CB07
:011B5800226A
:101BB60090E682E030E004E020E60B90E682E0303A
:101BC600E119E030E71590E680E04401F07F147EED
:0C1BD600001219AE90E680E054FEF022F0
:101B590030070990E680E0440AF0800790E680E0CB
:101B69004408F07FDC7E051219AE90E65D74FFF043
:0F1B790090E65FF05391EF90E680E054F7F02292
:1019AE008E568F5790E600E054187012E5572401BA
:1019BE00FFE43556C313F556EF13F557801590E631
:1019CE0000E05418FFBF100BE55725E0F557E5561C
:1019DE0033F556E5571557AE56700215564E60053F
:0619EE00121D9280EE22A2
:060D53008C4F8D50AE072D
:100D5900EB70037F012290E678E020E6F990E678CF
:100D69007480F0EE25E0440190E679F090E678E0B1
:100D790030E0F990E678E020E26BE030E167BB0112
:100D89000790E678E04420F090E679E0F5511BEB16
:100D9900603090E678E030E0F990E678E020E245CE
:100DA900BB010790E678E04420F090E679E0FF0582
:100DB90050E550AC4F7002054F14F5828C83EFF06B
:100DC90080CC90E678E030E0F990E678E020E21512
:100DD90090E678E04440F090E679E0855082854FCE
:0E0DE90083F07F012290E678E04440F07F0026
:010DF70022D9
:1017A10090E678E020E6F990E6787480F0EF25E0A5
:1017B10090E679F090E678E030E0F990E678E02084
:1017C100E23AE030E136EBD3940040260DEDAE0471
:1017D10070010C14F5828E83E090E679F01B90E69F
:1017E10078E030E0F990E678E020E210E020E1D600
:1017F100800A90E678E04440F07F012290E678E0AC
:051801004440F07F00EF
:0118060022BF
:021BE200A90751
:101BE400AE19AF1A8F828E83A3E064037017AD0120
:101BF40019ED7001228F828E83E07C002FFDEC3E74
:081C0400FEAF0580DFE4FEFFE6
:011C0C0022B5
:101D92007400F58690FDA57C05A3E582458370F964
:011DA200221E
:0300000002153AAC
:0C153A00787FE4F6D8FD75815F02158112
:1005AD00E709F608DFFA8046E709F208DFFA803E30
:1005BD0088828C83E709F0A3DFFA8032E309F6081D
:1005CD00DFFA8078E309F208DFFA807088828C8385
:1005DD00E309F0A3DFFA806489828A83E0A3F60839
:1005ED00DFFA805889828A83E0A3F208DFFA804C13
:1005FD0080D280FA80C680D4806980F280338010EA
:10060D0080A680EA809A80A880DA80E280CA803352
:10061D0089828A83ECFAE493A3C8C582C8CCC583CA
:10062D00CCF0A3C8C582C8CCC583CCDFE9DEE7809A
:10063D000D89828A83E493A3F608DFF9ECFAA9F019
:10064D00EDFB2289828A83ECFAE0A3C8C582C8CC6F
:10065D00C583CCF0A3C8C582C8CCC583CCDFEADE88
:10066D00E880DB89828A83E493A3F208DFF980CCEA
:10067D0088F0EF60010E4E60C388F0ED2402B404E3
:10068D000050B9F582EB2402B4040050AF2323458A
:06069D0082239005FD73AD
:1006A300BB010689828A83E0225002E722BBFE0255
:0906B300E32289828A83E4932288
:1006BC00BB010CE58229F582E5833AF583E02250F3
:1006CC0006E92582F8E622BBFE06E92582F8E2223D
:0D06DC00E58229F582E5833AF583E4932257
:1006E900BB010689828A83F0225002F722BBFE01F0
:0206F900F322EA
:1006FB00F8BB010DE58229F582E5833AF583E8F035
:10070B00225006E92582C8F622BBFE05E92582C8E0
:02071B00F222C8
:10071D00EF8DF0A4A8F0CF8CF0A428CE8DF0A42EF0
:02072D00FE22AA
:10072F00C2D5EC30E709B2D5E4C39DFDE49CFCEEE5
:10073F0030E715B2D5E4C39FFFE49EFE1207F7C35F
:10074F00E49DFDE49CFC80031207F730D507C3E45A
:06075F009FFFE49EFE2254
:10076500E8600FECC313FCED13FDEE13FEEF13FF72
:03077500D8F12296
:10077800E8600FEFC333FFEE33FEED33FDEC33FCDF
:03078800D8F12283
:10078B00BB010789828A830208585005E9F80208E1
:10079B004CBBFE05E9F802086489828A8302087063
:1007AB00BB010789828A830207C55005E9F8020855
:0A07BB0080BBFE05E9F802088C225D
:0C07C500ECF0A3EDF0A3EEF0A3EFF022A7
:1007D100D083D082F8E4937012740193700DA3A3B7
:1007E10093F8740193F5828883E4737402936860CB
:0607F100EFA3A3A380DFCB
:101546000216BAE493A3F8E493A34003F68001F2EB
:1015560008DFF48029E493A3F85407240CC8C333A6
:10156600C4540F4420C8834004F456800146F6DF75
:10157600E4800B01020408102040809011DCE47E18
:10158600019360BCA3FF543F30E509541FFEE4936A
:10159600A360010ECF54C025E060A840B8E493A331
:1015A600FAE493A3F8E493A3C8C582C8CAC583CA5C
:1015B600F0A3C8C582C8CAC583CADFE9DEE780BE14
:01129D000050
:1007F700BC000BBE0029EF8DF084FFADF022E4CCE6
:10080700F875F008EF2FFFEE33FEEC33FCEE9DECAE
:10081700984005FCEE9DFE0FD5F0E9E4CEFD22EDF4
:10082700F8F5F0EE8420D21CFEADF075F008EF2F3E
:10083700FFED33FD4007985006D5F0F222C398FD2F
:050847000FD5F0EA22CC
:0C084C00E6FC08E6FD08E6FE08E6FF22D8
:0C085800E0FCA3E0FDA3E0FEA3E0FF2213
:0C086400E2FC08E2FD08E2FE08E2FF22D0
:10087000E493FC740193FD740293FE740393FF22CE
:0C088000ECF608EDF608EEF608EFF622A4
:0C088C00ECF208EDF208EEF208EFF222A8
:00000001FF
