# 
# $Id: USB_FW.hex 7578 2009-12-03 20:58:03Z dima $ 
# 
:03004300021D009B
:03005300021D008B
:101D0000021C7000021CCD00021CB700021C8800DF
:081D1000021A60000219E9004B
:100C00001201000200000040AAAAAAAAAAAA010290
:100C100003010A060002000000400100090237003B
:100C2000020100C0000904000002FFFFFF040705E5
:100C3000020200020007058602000200090401000A
:100C400002FFFFFF050705040200020007058802F6
:100C5000000200001201000200000040E4E4511113
:100C60000000010203010A0600020000004001002A
:100C700009023700020100C0320904000002FFFF30
:100C8000FF0407050202400000070586024000003D
:100C90000904010002FFFFFF0507050402400000F0
:100CA0000705880240000006040016001400120028
:100CB0000A00260004030904160358006F0072009E
:100CC00063006F006D0020004C00540044001403CA
:100CD00041007300740072006900620061006E00E0
:100CE0006B001203530065007200690061006C0024
:100CF0004E006F000A0346005000470041002603E3
:100D00004D0061006E00610067006D0065006E00BF
:100D10007400500072006F00630065007300730080
:060D20006F0072000000EC
:05004E000300000000AA
:100FDC0041E0360041E0BA0042E0B5000041E037A4
:100FEC0000021BE0890218E07D43E0B700000052CC
:100FFC00E038373533313A373537364D50202020ED
:04100C002020200080
:101BB1008B4E8A4F8950E5531553AE527002155220
:101BC1004E6014AB4E0550E550AA4F7002054F14FC
:081BD100F9ED1206EB80DF22A2
:101A26008B4E8A4F8950E5551555AE5470021554A4
:101A36004E6026AB510553E553AA52700205521467
:101A4600F91206A5FFAB4E0550E550AA4F700205E8
:0A1A56004F14F9EF1206EB80CD22C9
:101C0100E490E670F075B5E653B5EE43B28053B299
:101C1100F4A2B53390E0BAF0C2B3C2B67F327E000F
:061C2100121C46D2B6229F
:101CA000538EF75389FB5389F74389015389FDE428
:071CB000F58AF58CD2A92290
:1016A1008C428D43AA06A9077551018A5289537547
:1016B100540075551C7B017AE07950121A2690E08E
:1016C10068E0FCA3E0FDA3E0FEA3E064D1FFEE64CB
:1016D1008DFEED644CFDEC6449FC90E0681207C797
:1016E1007EE07F507D1C7C0012114F7EE07F507B9D
:1016F1001C7A00AD43AC421212037D1C7C00AF4347
:10170100AE42120F157D1C7C00AF43AE42021A9609
:081889008E428F438C448D4513
:10189100C207121C27BF5004D207803BE4F546F56E
:1018A10047E5452547F582E5443546F583E0FFE503
:1018B100432547F582E5423546F583E0B5070E0538
:1018C10047E547700205466410454670D4E5476414
:0918D1001045467002D207A2077F
:0118DA0022EB
:100D2600121C278F3FE4F543F544AD44AC43121340
:100D36005E746D2544F582E434E0F583E540F00504
:100D460044E54470020543C39408E54364809480F7
:100D560040D890E06DE0B4C0087541007542088047
:100D66000675411D754236754300754408C3E54452
:100D76009410E54364809480502312135A746D25B1
:100D860044F582E434E0F583E540F00544E544703B
:100D96000205430542E54270D4054180D07540FF07
:100DA60075411D754219754300754410C3E5449499
:100DB6002CE543648094805033E53FB4510E7B00AC
:100DC6007A007940AD42AC41FF121366746D25443A
:100DD600F582E434E0F583E540F00544E54470022D
:100DE60005430542E54270C4054180C075411D7545
:100DF600423EE4F540F543F544C3E5449406E54335
:100E060064809480502FE53FB4510A90E06DE0B4C1
:100E1600C20312135A744A2544F582E434E0F5837A
:100E2600E540F00544E544700205430542E542709D
:0F0E3600C8054180C490E06DE0B4C20374C0F001
:010E4500228A
:0A1777008E428F438B448A45894659
:101781007E00E5432DF54BEE3542F54A121C278FBD
:1017910047E5476451600BC3E5439410E54294006B
:1017A1005035854248854349C3E549954BE5489500
:1017B1004A5024AB44AA45A946AD49AC48AF4712AB
:1017C10015AD0549E5497002054874012546F54600
:0717D100E43545F54580D128
:0117D80022EE
:061629008B3F8A4089415D
:10162F00D2067551017552E075536D75540075559D
:10163F00107B017AE07999121A26E5412410F9E41A
:10164F003540853F51F552895375540075551C7BB4
:10165F00017AE079A9121A267EE07F997CE07D1A43
:10166F001216A17EE07F1AE541241CF9E43540FCF7
:10167F00AD011218895016AB3FE5412410F9E4353E
:10168F0040FA7D1C7F197E1D1217778002C206A2B9
:01169F000644
:0116A0002227
:100E46007F03121B86EF2402FFE43EA907753F01CC
:100E5600F540894190E06EE0FFE50C2408F582E458
:100E6600350BF583EFF090E06FE0FFE50C2409F514
:100E760082E4350BF583EFF090E070E0FFE50C249B
:100E86000AF582E4350BF583EFF090E071E0FFE5BB
:100E96000C240BF582E4350BF583EFF090E072E05D
:100EA600FFE50C240CF582E4350BF583EFF090E0BA
:100EB60073E0FFE50C240DF582E4350BF583EFF0C6
:100EC6007F087E00E4FDEDC394085028746D2FF56D
:100ED60082E434E0F583E0FCAB3FAA40A94175F01B
:100EE60002EDA4F58285F083EC1206FD0D0FBF001E
:100EF600010E80D2E5192404F582E43518F583E065
:0E0F060030E0047F0180027F0090E036EFF0C3
:010F140022BA
:1018DB00AE0790E070E02EFFE50C240AF582E435AC
:1018EB000BF583EFF0E50C240BF582E4350BF58358
:1018FB00E0FEE50C240AF582E4350BF583E0FDED03
:10190B00FF90E0B5EEF0A3EFF0D206121AFD90E6D1
:05191B0080E054F7F02C
:0119200022A4
:1013FC0090E600E054E74410F090E60174C0F090E1
:10140C00E6107420F000000090E611F0000000904F
:10141C00E6047480F0000000740FF0000000E4F0AB
:10142C0000000090E6187410F0000000E490E6193B
:10143C00F000000090E61A7408F0000000E490E65A
:10144C001BF000000090E6497482F0000000F000F0
:10145C00000090E6247402F0000000E490E625F011
:10146C0000000090E6957480F0000000F000000091
:10147C0043AF017B017AE07914755200755306E491
:04148C00FD021BB191
:061C4000D2877F0A7E003E
:101C46007C007D1812071FEF1FAC0670011E4C703A
:021C5600F62274
:0A1832008E3F8F408B418A428943AC
:10183C00E4F544F545C3E5459540E544953F503BFB
:10184C00AB41AA42A9438545828544831206BEFF5B
:10185C00E4FBFAC2B2EF1392B7EFC313FFD2B20B91
:10186C00BB00010AEB64084A70E9C2B220B002C3A3
:0C187C00220545E54570BE054480BAD346
:01188800223D
:101C580090E60174C0F0C2B67F967E00121C46D290
:081C6800B67F327E00021C462B
:101CE300D2B1121C40C2B1121C42C2877F0A7E00CD
:031CF300021C468A
:0219A900AB078A
:1019AB00E4F9FAEBC413131354011392B17F027EC3
:1019BB0000121C46D2877F057E00121C46E925E0EB
:1019CB00FFA283E4334FF97F057E00121C46EB2503
:0D19DB00E0FBC287121C420ABA08C8AF0127
:0119E80022DC
:061967008B538A548955E0
:10196D00C2AF121CE3E4F55AE55AC395595027ABA3
:10197D0053AA54A955855A827583001206BEFF12CB
:10198D0019A9AB56AA57A958855A82758300EF122B
:0B199D0006FD055A80D2120028D2AFD0
:0119A800221C
:0B002800C2B1121C42121C40D2B122D7
:10000E00753F8F8F40755600755700755849755955
:0A001E00027B007A00793F021967A7
:101ACC00783F7C007D007BFF7A00794E7E007F059D
:101ADC0012067F30B41575560075570075583F7552
:101AEC0059057B007A00793F121967E5415401FFD3
:011AFC0022C7
:100AC200753F007540007541007543017544E0753E
:100AD20045007546017547E0754808E4FF7B017AD9
:100AE200E07900F552755308FD121BB1AB43AA44DD
:100AF200A94574011206EBE4F54DE54DC454F0AB83
:100B020043AA44A9459000011206FD854656854731
:100B120057854858755908121967AB46AA47A9481C
:100B22009000021206BEFF530770EF24E060172404
:100B3200F0601924F0601B2430702A753F0185187B
:100B4200408519418028E5192401800AE51924020B
:100B52008004E5192403FDE43518A905753F01F564
:100B62004089418009753F00754000754100E540AC
:100B72004541453F6028AB3FAA40A9411206A5FE68
:100B8200547FFDD3940740047C088002AC058C425C
:100B9200EE5480FEC3ED95424E1206EB800BEF70D1
:100BA200047E0180027E008E427449254DF8A642E1
:100BB200054DE54DC394045003020AFCAB43AA441D
:100BC200A94574881206EBAB43E5452401F9E435E7
:100BD20044FA7551007552007553497554007555A4
:100BE20004121A268546568547578548587559086E
:090BF200AB43AA44A945021967AE
:1017D9008F3F90E0B5E0FEA3E054F064607003EE43
:1017E900641160037F012290E036E070037F0F22CD
:1017F900E53F7003308108E53FB401062080037F8F
:10180900102290E0BAE0B53F037F0122E4F511D23E
:1018190006121AFDAF3F90E0BAEFF024FF92B5909F
:09182900E680E054F7F07F002294
:101C270090E678E0541824F06008240870087F5084
:081C370080067F518002E4FFEA
:011C3F002282
:0C135A00AD42AC417B007A007940AF3F0F
:0C1366008F458C468D478B488A49894A88
:10137200E4F54BF54C754D03FDF54EF54FE545246F
:10138200AF600D047012754B00754C017D01800831
:10139200754B00754C02E4FDE5456059E54C454B43
:1013A2006053E54690E0B7F0E547A3F0C2AF74B7EB
:1013B2002DF582E434E0AD82FCAB4CAF451217113F
:1013C200754E008F4FD2AF7F0A7E00121921E54F72
:1013D200454E6014C2AF7CE07D6C7B01AF451212BA
:1013E200B5754E008F4FD2AF90E06CE0AB48AA4982
:0913F200A94A1206EBAE4EAF4F02
:0113FB0022CF
:0C15AD008F4C8C4D8D4E8B4F8A50895115
:1015B900E4F552F553755403FDF555F556E54C24FC
:1015C900AF600D0470127552007553027D018008D9
:1015D900755200755303E4FDE54C603FE5534552F0
:1015E9006039E54D90E0B7F0E54EA3F0AB4FAA5056
:1015F900A9511206A590E0B9F0C2AF74B72DF582D2
:10160900E434E0AD82FCAB53AF4C121711755500B1
:0F1619008F56D2AF7F0A7E00121921AE55AF5601
:01162800229F
:10005600E4F531F532F535F53AF53BF53CF53DE598
:10006600AA548460030205AE90E694E0FE90E695FD
:10007600E0FBEEF53AEBF53BC39405E53A94004018
:100086000790F404E0FD80027DFFED1207D300CE59
:100096000102B30502FA0703590903BD0B011C0E41
:1000A60000E40F018A11024A1305202503E43104F6
:1000B6003A32044D3404953504AC3604C93703CAC4
:1000C6004503D9470000052E75310075320790FCAF
:1000D600047481F0A37414F0E4A3F00205517F0FB9
:1000E60012000E75310075320690FC047480F0E43F
:1000F600A3F0753505F511FE74002535F9EE34F4D7
:10010600FA7B01121629400690FC05740EF0120DBA
:10011600267F8F0202AD7F0E12000E7531007532FA
:1001260005121C278F3D90FC04748EF0121C278F3D
:100136003DE53D64516019E53D645060137531003D
:1001460075320690FC047480F0A3740BF00205511E
:10015600120D2674002532F974FC3531FA7B01C084
:10016600038B517552E075536D75540075552CD03F
:1001760003121A26742C2532F532E43531F5317F17
:100186008E0202AD75310075320790FC047491F051
:1001960090E678E090FC05F030B4047F0180027FA1
:1001A6000090FC06EFF074002532F974FC3531FA44
:1001B6007B01755200755312E4FD121BB1740025C4
:1001C60032F974FC3531FA7B01C0038B517552E06C
:1001D600755338755400755506D003121A267406E1
:1001E6002532F532E43531F531FE74002532F974E5
:1001F600FC3EFA7B01C0038B517552E075531475B2
:100206005400755506D003121A2674062532F532A7
:10021600E43531F531FE74002532F974FC3EFA7B83
:1002260001C0038B517552E075534A7554007555DC
:1002360006D003121A2674062532F532E43531F556
:10024600310205517F1312000E75310075321D9073
:10025600FC047493F0121C278F3D75381D75390008
:10026600753600753705D3E5399418E538941D5071
:1002760034E53DB4510E7B007A00793EAD39AC3899
:10028600FF12136674002537F58274FC3536F58344
:10029600E53EF00539E539700205380537E5377072
:1002A600C5053680C17F9312000E020551753100D7
:1002B60075320690FC047480F0E4A3F090F405E037
:1002C60090E037F0E014702A30B01E121C587551B9
:1002D600017552F47553067554007555067B017AFF
:1002E600E07914121A2602055190FC057401F002F9
:1002F60003B5805675310075320690FC047480F0A3
:10030600E4A3F0753507AF35FEC3E53B9FF534E54D
:100316003A9EF53390E037E014702F20B00330B4E6
:100326002074002FF974F43EFA7B01AF34AE331219
:1003360018325004E40204A590FC05740CF0020582
:100346005190FC057402F002055190FC057403F00F
:1003560002055175310075320690FC047480F0E494
:10036600A3F090E037E014704030B43590E60174A5
:1003760003F07F647E00121C46120D267EE07F6D20
:100386007CE07DBB1216A17EE07FBBAD1CAC1B12D0
:1003960018895005120AC2801690FC05740EF0806A
:1003A6000E90FC05740DF0800690FC057403F0E4D5
:1003B60090E037F0020551E4F531F5327F0212186C
:1003C600DB020551120D26120E46E4FF1217D9E480
:1003D600FF80027F011218DB121C5802055175318D
:1003E6000075320690FC047480F0E4A3F090F405E6
:1003F600E0F53CE4F511E53C64016004E53C70324F
:1004060090E0B5E0FEA3E054F064607003EE641182
:100416006002807290E036E070028058E511640157
:10042600600AE511700C121ACCEF6006853C1102C9
:100436000551805275310075320690FC0474B2F095
:10044600A3E511F002055175310075320690FC04E2
:100456007480F0E4A3F090F405E0F53CFF1217D9A0
:10046600EF24F1600F1460152410701AE4F531F5CD
:100476003202055190FC05740FF002055190FC05FF
:100486007410F002055190FC057401F002055175D7
:10049600310075320690FC0474B5F090E0BAE09035
:1004A600FC05F002055175310075320690FC0474A6
:1004B600B6F0A280E43325E0FFA281E4334FA3F037
:1004C600020551853A31853B3290FC0474B7F075CC
:1004D6003505C3E53B9535F534E53A9400F53374B7
:1004E600002535F582E434F4F583E06488605CAF7A
:1004F600357E0074002FF9EE34F4FA7B01C003C098
:100506000174002FF9EE34FC8B56F5578958853463
:1005160059D001D003121967803175310075320543
:1005260090FC0474A5F0802375310075320690FCAA
:10053600047480F0C3E53B9405E53A94005006A3A5
:100546007407F0800690FC057406F090F404E0B49D
:100556008004A3E0701290F404E06405600FE06488
:1005660007600AE064096005E490E037F0E532458B
:1005760031602CE532FD90FC00F0E531FFA3F090F0
:10058600F402E090FC02F090F403E090FC03F0909B
:10059600E69CEFF000000090E69DEDF00000009074
:0805A600E6957480F0000000EE
:0105AE00222A
:02004100D322C8
:0800030090E6BAE0F51DD322DE
:101D180090E740E51DF0E490E68AF090E68B04F049
:021D2800D322C4
:0800460090E6BAE0F51AD3229E
:101D2A0090E740E51AF0E490E68AF090E68B04F03A
:021D3A00D322B2
:101BD90090E6B9E0242F600D04701990E604E0FF47
:101BE900430780800890E604E0FF53077F00000068
:071BF900EFF08002D322C3CC
:011C000022C1
:101C7000C0E0C083C082D2015391EF90E65D740151
:081C8000F0D082D083D0E032E5
:101CB700C0E0C083C0825391EF90E65D7404F0D01A
:061CC70082D083D0E03260
:101CCD00C0E0C083C0825391EF90E65D7402F0D006
:061CDD0082D083D0E0324A
:101A6000C0E0C083C08285120D85130E850E82856D
:101A70000D83A37402F085090F850A1085108285F5
:101A80000F83A37407F05391EF90E65D7410F0D0CC
:061A900082D083D0E03299
:101C8800C0E0C083C082D2035391EF90E65D740830
:081C9800F0D082D083D0E032CD
:1019E900C0E0C083C08290E680E030E72085090D21
:1019F900850A0E850E82850D83A37402F085120F68
:101A0900851310851082850F83A37407F05391EF16
:0D1A190090E65D7420F0D082D083D0E032E2
:0F1D4D0000010202030304040505030000000067
:06101000011100010800BF
:03000B0002109B45
:10109B00C0E0C0F0C083C082C0D075D000C000C01B
:0D10AB0001C002C003C004C005C006C0079C
:1010B80078217C007D007BFF7A1D79577E007F05B3
:1010C80012067F90E0BAE0F526C204752700E5080D
:1010D800600415088056750805E5117004C204807F
:1010E80043A280308101B3500B3081047F008030EF
:1010F8007F01802C30B4157556007557007558213E
:101108007559057B007A007921121967E523540186
:10111800F527701090E0BAE060047F0080027F013C
:0C1128008F26D204300405AF261217D920
:10113400D007D006D005D004D003D002D001D0000F
:0B114400D0D0D082D083D0F0D0E032B9
:10149000C203C200D202C201121C01121CA012130C
:1014A000FC750B0C750C0075140C75151275090C78
:1014B000750A1C75120C75137085120F8513107543
:1014C000160C7517B4120D26120E46D2E843D8201A
:1014D00090E668E04409F090E65CE0443DF0121CC0
:1014E000277B007A007930E4FDFC121366E5306456
:1014F000C26007E490E0BAF0C2B57F011218DBD2F7
:10150000AFD28C538EF8C203C2AF120056D2AF30A6
:10151000010512089AC2013003EEC203121B5A8061
:01152000E7E3
:0B00360090E50DE030E402C322D3226D
:10089A0090E6B9E0700302095F1470030209D424D8
:1008AA00FE7003020A4F24FB7003020959147003F5
:1008BA0002095314700302094714700302094D24F4
:1008CA00056003020AAE1200414003020ABA90E62A
:1008DA00BBE024FE602714603E24FD6011146027EB
:1008EA0024067056E50B90E6B3F0E50C8042120040
:1008FA00365044E51490E6B3F0E5158033E50D90E3
:10090A00E6B3F0E50E802985120F851310E50F90E6
:10091A00E6B3F0E510801990E6BAE0FF121B86AA4A
:10092A0006A9077B01EA494B600DEE90E6B3F0EFAA
:10093A0090E6B4F0020ABA020AA9020AA9121D2A0A
:10094A00020ABA120046020ABA120003020ABA12CC
:10095A001D18020ABA90E6B8E0247F6015146019DF
:10096A0024027063A200E43325E0FFA202E4334FBD
:10097A008041E490E740F0803F90E6BCE0547EFF7F
:10098A007E00E0D394807C0040047D0180027D00DB
:10099A00EC4EFEED4F244DF582741D3EF583E49333
:1009AA00FF3395E0FEEF24A1FFEE34E68F82F58354
:1009BA00E0540190E740F0E4A3F090E68AF090E674
:1009CA008B7402F0020ABA020AA990E6B8E024FE81
:1009DA00601624026003020ABA90E6BAE0B401057E
:1009EA00C200020ABA020AA990E6BAE0705590E675
:1009FA00BCE0547EFF7E00E0D394807C0040047DFE
:100A0A000180027D00EC4EFEED4F244DF582741DEF
:100A1A003EF583E493FF3395E0FEEF24A1FFEE3425
:100A2A00E68F82F583E054FEF090E6BCE054801332
:100A3A001313541FFFE0540F2F90E683F0E0442075
:100A4A00F0806D805A90E6B8E024FE6019240270A6
:100A5A004E90E6BAE0B40104D200805490E6BAE0BF
:100A6A006402604C803990E6BCE0547EFF7E00E070
:100A7A00D394807C0040047D0180027D00EC4EFE10
:100A8A00ED4F244DF582741D3EF583E493FF3395B3
:100A9A00E0FEEF24A1FFEE34E68F82F583800D900D
:100AAA00E6A08008121BD9500790E6A0E04401F0A6
:070ABA0090E6A0E04480F08B
:010AC1002212
:03003300020BFBC2
:040BFB0053D8EF32AA
:101016006080E0D7292E43C9A2D87C013D3654A171
:10102600ECF0061362A705F3C0C7738C98932BD90F
:10103600BC4C82CA1E9B573CFDD4E01667426F1813
:101046008A17E512BE4EC4D6DA9EDE49A0FBF58E9F
:10105600BB2FEE7AA968799115B2073F94C2108921
:101066000B225F21807F5D9A5A903227353ECCE76E
:10107600BFF79703FF1930B348A5B5D1D75E922ABB
:10108600AC56AAC64FB838D296A47DB676FC6BE2AB
:041096009C7404F151
:08114F008C448D45AB07AA0694
:10115700E4F546F547C3E5479545E5446480F8E57A
:101167004664809840030211FEE54725E0FFE54607
:1011770033FE74D72FF58274E03EF583E0FF7E00DF
:10118700AC44AD451207318C488D49E54725E0FF52
:10119700E54633FE74D82FF58274E03EF583E0FF11
:1011A7007E00AC44AD451207318C4A8D4BE549654D
:1011B7004B7004E548654A6030EB2549F582EA350E
:1011C70048F583E0F9EB254BF582EA354AF583E0EC
:1011D700FFEB2549F582EA3548F583EFF0EB254B20
:1011E700F582EA354AF583E9F00547E547600302EA
:0B11F700115C054602115C7E007F01C8
:0112020022C9
:0C1203008E448F458C468D478A488B49ED
:10120F00E54545446006E54745467004E4FEFF2288
:10121F00E4F54AF54BC3E54B9549E5486480F8E59D
:10122F004A648098507BE4F54CF54DE547254BF526
:10123F0082E546354AF583E4F0C3E54D9549E54827
:10124F006480F8E54C6480985049E54D254B24D7D0
:10125F00F582E434E0F583E0FFE545254DF582E5C1
:10126F0044354CF583E0FEEF8EF0A4FFE547254BA8
:10127F00F582E546354AF583E02FFFE547254BF527
:10128F0082E546354AF583EFF0054DE54D70AA0529
:10129F004C80A6054BE54B6003021224054A02124F
:0512AF00247E007F0118
:0112B4002217
:101B2C001206A5FF9000031206BE1206EB900003EE
:101B3C00EF1206FD9000021206BEFF900001120685
:0E1B4C00BE9000021206FD900001EF0206FDA1
:080F15008E448F458C468D4788
:100F1D00E4F548F549E547AE467802CEA2E713CE93
:100F2D0013D8F8FFC3E5499FEE6480F8E548648067
:100F3D00984003020FD7E549AE487802C333CE334C
:100F4D00CED8F92545FFEE3544FAA9077B018B4A2A
:100F5D00F54B894C74D82549F582E434E0F583E0EE
:100F6D00541FFFE48F50F54FF54EF54D121B2CAB72
:100F7D004AAA4BA94C12078DC374209550F9F8124B
:100F8D00077AC004C005C006C007A94C12078DA979
:100F9D0050A801120767D003D002D001D000EF4B4B
:100FAD00FFEE4AFEED49FDEC48FCAB4AAA4BA94CBD
:100FBD001207ADAB4AAA4BA94C121B2C0549E549AA
:0E0FCD006003020F220548020F227E007F0102
:010FDB0022F3
:101A9600D3ED9410EC64809480402AED1D70011CF7
:101AA600142FF582EE3CF583E0FB547F24D7F582B4
:101AB600E434E0F583E0F9540F2FF582E43EF58334
:051AC600E06BF080CB95
:011ACB0022F8
:101B5A0090E682E030E004E020E60B90E682E03096
:101B6A00E119E030E71590E680E04401F07F147E49
:0C1B7A000012192190E680E054FEF022D9
:101AFD0030060990E680E0440AF0800790E680E029
:101B0D004408F07FDC7E0512192190E65D74FFF02C
:0F1B1D0090E65FF05391EF90E680E054F7F022EE
:101921008E578F5890E600E054187012E558240144
:10193100FFE43557C313F557EF13F558801590E6BB
:1019410000E05418FFBF100BE55825E0F558E557A6
:1019510033F557E5581558AE57700215574E6005C7
:06196100121D3C80EE2285
:0612B5008C508D51AE07C4
:1012BB00EB70037F012290E678E020E6F990E67868
:1012CB007480F0EE25E0440190E679F090E678E04A
:1012DB0030E0F990E678E020E26BE030E167BB01AB
:1012EB000790E678E04420F090E679E0F5521BEBAE
:1012FB00603090E678E030E0F990E678E020E24567
:10130B00BB010790E678E04420F090E679E0FF051A
:10131B0051E551AC507002055014F5828C83EFF0FF
:10132B0080CC90E678E030E0F990E678E020E215AA
:10133B0090E678E04440F090E679E0855182855064
:0E134B0083F07F012290E678E04440F07F00BE
:011359002271
:1017110090E678E020E6F990E6787480F0EF25E035
:1017210090E679F090E678E030E0F990E678E02014
:10173100E23AE030E136EBD3940040260DEDAE0401
:1017410070010C14F5828E83E090E679F01B90E62F
:1017510078E030E0F990E678E020E210E020E1D690
:10176100800A90E678E04440F07F012290E678E03C
:051771004440F07F0080
:011776002250
:021B8600A907AD
:101B8800AE16AF178F828E83A3E064037017AD0182
:101B980019ED7001228F828E83E07C002FFDEC3ED0
:081BA800FEAF0580DFE4FEFF43
:011BB0002212
:101D3C007400F58690FDA57C05A3E582458370F9BA
:011D4C002274
:03000000021521C5
:0C152100787FE4F6D8FD75815A02156849
:1005AF00E709F608DFFA8046E709F208DFFA803E2E
:1005BF0088828C83E709F0A3DFFA8032E309F6081B
:1005CF00DFFA8078E309F208DFFA807088828C8383
:1005DF00E309F0A3DFFA806489828A83E0A3F60837
:1005EF00DFFA805889828A83E0A3F208DFFA804C11
:1005FF0080D280FA80C680D4806980F280338010E8
:10060F0080A680EA809A80A880DA80E280CA803350
:10061F0089828A83ECFAE493A3C8C582C8CCC583C8
:10062F00CCF0A3C8C582C8CCC583CCDFE9DEE78098
:10063F000D89828A83E493A3F608DFF9ECFAA9F017
:10064F00EDFB2289828A83ECFAE0A3C8C582C8CC6D
:10065F00C583CCF0A3C8C582C8CCC583CCDFEADE86
:10066F00E880DB89828A83E493A3F208DFF980CCE8
:10067F0088F0EF60010E4E60C388F0ED2402B404E1
:10068F000050B9F582EB2402B4040050AF23234588
:06069F0082239005FF73A9
:1006A500BB010689828A83E0225002E722BBFE0253
:0906B500E32289828A83E4932286
:1006BE00BB010CE58229F582E5833AF583E02250F1
:1006CE0006E92582F8E622BBFE06E92582F8E2223B
:0D06DE00E58229F582E5833AF583E4932255
:1006EB00BB010689828A83F0225002F722BBFE01EE
:0206FB00F322E8
:1006FD00F8BB010DE58229F582E5833AF583E8F033
:10070D00225006E92582C8F622BBFE05E92582C8DE
:02071D00F222C6
:10071F00EF8DF0A4A8F0CF8CF0A428CE8DF0A42EEE
:02072F00FE22A8
:10073100C2D5EC30E709B2D5E4C39DFDE49CFCEEE3
:1007410030E715B2D5E4C39FFFE49EFE1207F9C35B
:10075100E49DFDE49CFC80031207F930D507C3E456
:060761009FFFE49EFE2252
:10076700E8600FECC313FCED13FDEE13FEEF13FF70
:03077700D8F12294
:10077A00E8600FEFC333FFEE33FEED33FDEC33FCDD
:03078A00D8F12281
:10078D00BB010789828A8302085A5005E9F80208DD
:10079D004EBBFE05E9F802086689828A830208725B
:1007AD00BB010789828A830207C75005E9F8020851
:0A07BD0082BBFE05E9F802088E2257
:0C07C700ECF0A3EDF0A3EEF0A3EFF022A5
:1007D300D083D082F8E4937012740193700DA3A3B5
:1007E30093F8740193F5828883E4737402936860C9
:0607F300EFA3A3A380DFC9
:10152D00021490E493A3F8E493A34003F68001F230
:10153D0008DFF48029E493A3F85407240CC8C333BF
:10154D00C4540F4420C8834004F456800146F6DF8E
:10155D00E4800B0102040810204080900FDCE47E33
:10156D00019360BCA3FF543F30E509541FFEE49383
:10157D00A360010ECF54C025E060A840B8E493A34A
:10158D00FAE493A3F8E493A3C8C582C8CAC583CA75
:10159D00F0A3C8C582C8CAC583CADFE9DEE780BE2D
:01109A000055
:1007F900BC000BBE0029EF8DF084FFADF022E4CCE4
:10080900F875F008EF2FFFEE33FEEC33FCEE9DECAC
:10081900984005FCEE9DFE0FD5F0E9E4CEFD22EDF2
:10082900F8F5F0EE8420D21CFEADF075F008EF2F3C
:10083900FFED33FD4007985006D5F0F222C398FD2D
:050849000FD5F0EA22CA
:0C084E00E6FC08E6FD08E6FE08E6FF22D6
:0C085A00E0FCA3E0FDA3E0FEA3E0FF2211
:0C086600E2FC08E2FD08E2FE08E2FF22CE
:10087200E493FC740193FD740293FE740393FF22CC
:0C088200ECF608EDF608EEF608EFF622A2
:0C088E00ECF208EDF208EEF208EFF222A6
:00000001FF
